{
    "contractName": "registration",
    "abi": [
        {
            "inputs": [],
            "stateMutability": "nonpayable",
            "type": "constructor"
        },
        {
            "inputs": [
                {
                    "internalType": "address",
                    "name": "_voter",
                    "type": "address"
                }
            ],
            "name": "deleteVoter",
            "outputs": [],
            "stateMutability": "nonpayable",
            "type": "function"
        },
        {
            "inputs": [
                {
                    "internalType": "address",
                    "name": "_voter",
                    "type": "address"
                }
            ],
            "name": "infoVoter",
            "outputs": [
                {
                    "components": [
                        {
                            "internalType": "bool",
                            "name": "isVoter",
                            "type": "bool"
                        },
                        {
                            "internalType": "address",
                            "name": "addr",
                            "type": "address"
                        },
                        {
                            "internalType": "uint256",
                            "name": "index",
                            "type": "uint256"
                        },
                        {
                            "internalType": "string",
                            "name": "name",
                            "type": "string"
                        },
                        {
                            "internalType": "string",
                            "name": "strAddr",
                            "type": "string"
                        },
                        {
                            "internalType": "string",
                            "name": "birth",
                            "type": "string"
                        },
                        {
                            "internalType": "string",
                            "name": "id",
                            "type": "string"
                        }
                    ],
                    "internalType": "struct registration.Voter",
                    "name": "",
                    "type": "tuple"
                }
            ],
            "stateMutability": "view",
            "type": "function"
        },
        {
            "inputs": [
                {
                    "internalType": "address",
                    "name": "_voter",
                    "type": "address"
                }
            ],
            "name": "isVoter",
            "outputs": [
                {
                    "internalType": "bool",
                    "name": "",
                    "type": "bool"
                }
            ],
            "stateMutability": "view",
            "type": "function"
        },
        {
            "inputs": [],
            "name": "listVoters",
            "outputs": [
                {
                    "internalType": "address[]",
                    "name": "",
                    "type": "address[]"
                }
            ],
            "stateMutability": "view",
            "type": "function"
        },
        {
            "inputs": [],
            "name": "manager",
            "outputs": [
                {
                    "internalType": "address",
                    "name": "",
                    "type": "address"
                }
            ],
            "stateMutability": "view",
            "type": "function"
        },
        {
            "inputs": [],
            "name": "numberVoters",
            "outputs": [
                {
                    "internalType": "uint256",
                    "name": "",
                    "type": "uint256"
                }
            ],
            "stateMutability": "view",
            "type": "function"
        },
        {
            "inputs": [
                {
                    "internalType": "address",
                    "name": "_voter",
                    "type": "address"
                },
                {
                    "internalType": "string",
                    "name": "_name",
                    "type": "string"
                },
                {
                    "internalType": "string",
                    "name": "_strAddr",
                    "type": "string"
                },
                {
                    "internalType": "string",
                    "name": "_birth",
                    "type": "string"
                },
                {
                    "internalType": "string",
                    "name": "_id",
                    "type": "string"
                }
            ],
            "name": "registerUpdate",
            "outputs": [],
            "stateMutability": "nonpayable",
            "type": "function"
        }
    ],
    "bytecode": "608060405234801561001057600080fd5b50600080546001600160a01b03191633179055610c48806100326000396000f3fe608060405234801561001057600080fd5b506004361061007d5760003560e01c806388e1c7391161005b57806388e1c739146100e357806396dfa63f146100f8578063a7771ee31461010d578063d95410e91461013057600080fd5b8063481c6a751461008257806352118db2146100b257806386548d2c146100d2575b600080fd5b600054610095906001600160a01b031681565b6040516001600160a01b0390911681526020015b60405180910390f35b6100c56100c036600461097c565b610143565b6040516100a99190610aee565b6002546040519081526020016100a9565b6100f66100f136600461097c565b61042b565b005b6101006105ea565b6040516100a99190610aa1565b61012061011b36600461097c565b61064c565b60405190151581526020016100a9565b6100f661013e36600461099d565b61067d565b61018e6040518060e0016040528060001515815260200160006001600160a01b0316815260200160008152602001606081526020016060815260200160608152602001606081525090565b6001600160a01b03808316600090815260016020818152604092839020835160e081018552815460ff81161515825261010090049095169185019190915290810154918301919091526002810180546060840191906101ec90610bc1565b80601f016020809104026020016040519081016040528092919081815260200182805461021890610bc1565b80156102655780601f1061023a57610100808354040283529160200191610265565b820191906000526020600020905b81548152906001019060200180831161024857829003601f168201915b5050505050815260200160038201805461027e90610bc1565b80601f01602080910402602001604051908101604052809291908181526020018280546102aa90610bc1565b80156102f75780601f106102cc576101008083540402835291602001916102f7565b820191906000526020600020905b8154815290600101906020018083116102da57829003601f168201915b5050505050815260200160048201805461031090610bc1565b80601f016020809104026020016040519081016040528092919081815260200182805461033c90610bc1565b80156103895780601f1061035e57610100808354040283529160200191610389565b820191906000526020600020905b81548152906001019060200180831161036c57829003601f168201915b505050505081526020016005820180546103a290610bc1565b80601f01602080910402602001604051908101604052809291908181526020018280546103ce90610bc1565b801561041b5780601f106103f05761010080835404028352916020019161041b565b820191906000526020600020905b8154815290600101906020018083116103fe57829003601f168201915b5050505050815250509050919050565b6000546001600160a01b031633146104775760405162461bcd60e51b815260206004820152600a60248201526927b7363c9030b236b4b760b11b60448201526064015b60405180910390fd5b6001600160a01b03811660009081526001602081905260409091205460ff161515146104d65760405162461bcd60e51b815260206004820152600e60248201526d139bdd081c9959da5cdd195c995960921b604482015260640161046e565b6001600160a01b03811660009081526001602081905260408220805460ff1916815581015460028054919392909161050e9190610b9e565b8154811061052c57634e487b7160e01b600052603260045260246000fd5b600091825260209091200154600280546001600160a01b03909216925082918490811061056957634e487b7160e01b600052603260045260246000fd5b600091825260208083209190910180546001600160a01b0319166001600160a01b039485161790559183168152600191829052604090200182905560028054806105c357634e487b7160e01b600052603160045260246000fd5b600082815260209020810160001990810180546001600160a01b0319169055019055505050565b6060600280548060200260200160405190810160405280929190818152602001828054801561064257602002820191906000526020600020905b81546001600160a01b03168152600190910190602001808311610624575b5050505050905090565b60025460009061065e57506000919050565b506001600160a01b031660009081526001602052604090205460ff1690565b6000546001600160a01b031633146106c45760405162461bcd60e51b815260206004820152600a60248201526927b7363c9030b236b4b760b11b604482015260640161046e565b6001600160a01b03851660009081526001602052604090205460ff1661077957600280546001808201835560008390527f405787fa12a823e0f2b7631cc41b3ba8828b3321ca811111fa75cd3aa3bb5ace90910180546001600160a01b0319166001600160a01b038916179055905461073d9190610b9e565b6001600160a01b03861660008181526001602081905260409091208082019390935582546001600160a81b031916610100909202919091171790555b6001600160a01b038516600090815260016020908152604090912085516107a892600290920191870190610840565b506001600160a01b038516600090815260016020908152604090912084516107d892600390920191860190610840565b506001600160a01b0385166000908152600160209081526040909120835161080892600490920191850190610840565b506001600160a01b0385166000908152600160209081526040909120825161083892600590920191840190610840565b505050505050565b82805461084c90610bc1565b90600052602060002090601f01602090048101928261086e57600085556108b4565b82601f1061088757805160ff19168380011785556108b4565b828001600101855582156108b4579182015b828111156108b4578251825591602001919060010190610899565b506108c09291506108c4565b5090565b5b808211156108c057600081556001016108c5565b80356001600160a01b03811681146108f057600080fd5b919050565b600082601f830112610905578081fd5b813567ffffffffffffffff8082111561092057610920610bfc565b604051601f8301601f19908116603f0116810190828211818310171561094857610948610bfc565b81604052838152866020858801011115610960578485fd5b8360208701602083013792830160200193909352509392505050565b60006020828403121561098d578081fd5b610996826108d9565b9392505050565b600080600080600060a086880312156109b4578081fd5b6109bd866108d9565b9450602086013567ffffffffffffffff808211156109d9578283fd5b6109e589838a016108f5565b955060408801359150808211156109fa578283fd5b610a0689838a016108f5565b94506060880135915080821115610a1b578283fd5b610a2789838a016108f5565b93506080880135915080821115610a3c578283fd5b50610a49888289016108f5565b9150509295509295909350565b60008151808452815b81811015610a7b57602081850181015186830182015201610a5f565b81811115610a8c5782602083870101525b50601f01601f19169290920160200192915050565b6020808252825182820181905260009190848201906040850190845b81811015610ae25783516001600160a01b031683529284019291840191600101610abd565b50909695505050505050565b6020815281511515602082015260006020830151610b1760408401826001600160a01b03169052565b5060408301516060830152606083015160e06080840152610b3c610100840182610a56565b90506080840151601f19808584030160a0860152610b5a8383610a56565b925060a08601519150808584030160c0860152610b778383610a56565b925060c08601519150808584030160e086015250610b958282610a56565b95945050505050565b600082821015610bbc57634e487b7160e01b81526011600452602481fd5b500390565b600181811c90821680610bd557607f821691505b60208210811415610bf657634e487b7160e01b600052602260045260246000fd5b50919050565b634e487b7160e01b600052604160045260246000fdfea264697066735822122033e45c7852eb8b74fae46026f7e42749e497c5b73f74304cd5a182c213d1dc6664736f6c63430008040033",
    "sourcePath": "c:/Users/1/Desktop/my-project/src/contracts/registration.sol",
    "compiler": {
        "name": "solc",
        "version": "0.8.4+commit.c7e474f2"
    },
    "functionHashes": {
        "deleteVoter(address)": "88e1c739",
        "infoVoter(address)": "52118db2",
        "isVoter(address)": "a7771ee3",
        "listVoters()": "96dfa63f",
        "manager()": "481c6a75",
        "numberVoters()": "86548d2c",
        "registerUpdate(address,string,string,string,string)": "d95410e9"
    },
    "gasEstimates": {
        "creation": {
            "codeDepositCost": "628800",
            "executionCost": "21499",
            "totalCost": "650299"
        },
        "external": {
            "deleteVoter(address)": "109972",
            "infoVoter(address)": "infinite",
            "isVoter(address)": "2130",
            "listVoters()": "infinite",
            "manager()": "1027",
            "numberVoters()": "1025",
            "registerUpdate(address,string,string,string,string)": "infinite"
        }
    }
}