{
    "contractName": "Voting",
    "abi": [
        {
            "inputs": [
                {
                    "internalType": "address",
                    "name": "_manager",
                    "type": "address"
                },
                {
                    "internalType": "address",
                    "name": "_registration",
                    "type": "address"
                },
                {
                    "internalType": "string",
                    "name": "_title",
                    "type": "string"
                },
                {
                    "internalType": "string",
                    "name": "_description",
                    "type": "string"
                },
                {
                    "internalType": "uint256",
                    "name": "_time_start",
                    "type": "uint256"
                },
                {
                    "internalType": "uint256",
                    "name": "_endTime",
                    "type": "uint256"
                },
                {
                    "internalType": "string",
                    "name": "_publicKey",
                    "type": "string"
                }
            ],
            "stateMutability": "nonpayable",
            "type": "constructor"
        },
        {
            "inputs": [],
            "name": "Registration",
            "outputs": [
                {
                    "internalType": "address",
                    "name": "",
                    "type": "address"
                }
            ],
            "stateMutability": "view",
            "type": "function"
        },
        {
            "inputs": [
                {
                    "internalType": "string",
                    "name": "_title",
                    "type": "string"
                },
                {
                    "internalType": "string",
                    "name": "_description",
                    "type": "string"
                }
            ],
            "name": "addParam",
            "outputs": [],
            "stateMutability": "nonpayable",
            "type": "function"
        },
        {
            "inputs": [],
            "name": "base",
            "outputs": [
                {
                    "internalType": "address",
                    "name": "",
                    "type": "address"
                }
            ],
            "stateMutability": "view",
            "type": "function"
        },
        {
            "inputs": [],
            "name": "description",
            "outputs": [
                {
                    "internalType": "string",
                    "name": "",
                    "type": "string"
                }
            ],
            "stateMutability": "view",
            "type": "function"
        },
        {
            "inputs": [],
            "name": "endTime",
            "outputs": [
                {
                    "internalType": "uint256",
                    "name": "",
                    "type": "uint256"
                }
            ],
            "stateMutability": "view",
            "type": "function"
        },
        {
            "inputs": [
                {
                    "internalType": "address",
                    "name": "_address",
                    "type": "address"
                }
            ],
            "name": "getEncryptedVots",
            "outputs": [
                {
                    "internalType": "string",
                    "name": "encryptedVote",
                    "type": "string"
                }
            ],
            "stateMutability": "view",
            "type": "function"
        },
        {
            "inputs": [],
            "name": "getListOfVoted",
            "outputs": [
                {
                    "internalType": "address[]",
                    "name": "votersList",
                    "type": "address[]"
                }
            ],
            "stateMutability": "view",
            "type": "function"
        },
        {
            "inputs": [],
            "name": "getParametrs",
            "outputs": [
                {
                    "components": [
                        {
                            "internalType": "string",
                            "name": "title",
                            "type": "string"
                        },
                        {
                            "internalType": "string",
                            "name": "description",
                            "type": "string"
                        }
                    ],
                    "internalType": "struct Voting.Param[]",
                    "name": "",
                    "type": "tuple[]"
                }
            ],
            "stateMutability": "view",
            "type": "function"
        },
        {
            "inputs": [],
            "name": "getResults",
            "outputs": [
                {
                    "internalType": "uint256[]",
                    "name": "results",
                    "type": "uint256[]"
                }
            ],
            "stateMutability": "view",
            "type": "function"
        },
        {
            "inputs": [],
            "name": "manager",
            "outputs": [
                {
                    "internalType": "address",
                    "name": "",
                    "type": "address"
                }
            ],
            "stateMutability": "view",
            "type": "function"
        },
        {
            "inputs": [
                {
                    "internalType": "uint256",
                    "name": "",
                    "type": "uint256"
                }
            ],
            "name": "parametrs",
            "outputs": [
                {
                    "internalType": "string",
                    "name": "title",
                    "type": "string"
                },
                {
                    "internalType": "string",
                    "name": "description",
                    "type": "string"
                }
            ],
            "stateMutability": "view",
            "type": "function"
        },
        {
            "inputs": [],
            "name": "publicKey",
            "outputs": [
                {
                    "internalType": "string",
                    "name": "",
                    "type": "string"
                }
            ],
            "stateMutability": "view",
            "type": "function"
        },
        {
            "inputs": [
                {
                    "internalType": "uint256[]",
                    "name": "results",
                    "type": "uint256[]"
                }
            ],
            "name": "publishResults",
            "outputs": [
                {
                    "internalType": "bool",
                    "name": "success",
                    "type": "bool"
                }
            ],
            "stateMutability": "nonpayable",
            "type": "function"
        },
        {
            "inputs": [
                {
                    "internalType": "uint256",
                    "name": "",
                    "type": "uint256"
                }
            ],
            "name": "publishedResult",
            "outputs": [
                {
                    "internalType": "uint256",
                    "name": "",
                    "type": "uint256"
                }
            ],
            "stateMutability": "view",
            "type": "function"
        },
        {
            "inputs": [],
            "name": "time_start",
            "outputs": [
                {
                    "internalType": "uint256",
                    "name": "",
                    "type": "uint256"
                }
            ],
            "stateMutability": "view",
            "type": "function"
        },
        {
            "inputs": [],
            "name": "title",
            "outputs": [
                {
                    "internalType": "string",
                    "name": "",
                    "type": "string"
                }
            ],
            "stateMutability": "view",
            "type": "function"
        },
        {
            "inputs": [
                {
                    "internalType": "string",
                    "name": "_encryptedVote",
                    "type": "string"
                }
            ],
            "name": "vote",
            "outputs": [
                {
                    "internalType": "bool",
                    "name": "success",
                    "type": "bool"
                }
            ],
            "stateMutability": "nonpayable",
            "type": "function"
        },
        {
            "inputs": [
                {
                    "internalType": "address",
                    "name": "_address",
                    "type": "address"
                }
            ],
            "name": "yetVoted",
            "outputs": [
                {
                    "internalType": "bool",
                    "name": "",
                    "type": "bool"
                }
            ],
            "stateMutability": "view",
            "type": "function"
        }
    ],
    "bytecode": "60806040523480156200001157600080fd5b50604051620014a9380380620014a983398101604081905262000034916200023d565b60008054336001600160a01b0319918216179091556002805482166001600160a01b038981169190911790915560018054909216908916179055845162000083906003906020880190620000c7565b50835162000099906004906020870190620000c7565b50600583905560068290558051620000b9906008906020840190620000c7565b505050505050505062000357565b828054620000d59062000304565b90600052602060002090601f016020900481019282620000f9576000855562000144565b82601f106200011457805160ff191683800117855562000144565b8280016001018555821562000144579182015b828111156200014457825182559160200191906001019062000127565b506200015292915062000156565b5090565b5b8082111562000152576000815560010162000157565b80516001600160a01b03811681146200018557600080fd5b919050565b600082601f8301126200019b578081fd5b81516001600160401b0380821115620001b857620001b862000341565b604051601f8301601f19908116603f01168101908282118183101715620001e357620001e362000341565b81604052838152602092508683858801011115620001ff578485fd5b8491505b8382101562000222578582018301518183018401529082019062000203565b838211156200023357848385830101525b9695505050505050565b600080600080600080600060e0888a03121562000258578283fd5b62000263886200016d565b965062000273602089016200016d565b60408901519096506001600160401b038082111562000290578485fd5b6200029e8b838c016200018a565b965060608a0151915080821115620002b4578485fd5b620002c28b838c016200018a565b955060808a0151945060a08a0151935060c08a0151915080821115620002e6578283fd5b50620002f58a828b016200018a565b91505092959891949750929550565b600181811c908216806200031957607f821691505b602082108114156200033b57634e487b7160e01b600052602260045260246000fd5b50919050565b634e487b7160e01b600052604160045260246000fd5b61114280620003676000396000f3fe608060405234801561001057600080fd5b50600436106101165760003560e01c806363ffab31116100a257806378e979251161007157806378e979251461024357806384d1d91e1461024c578063e8a379191461025f578063ead0efba14610272578063fc36e15b1461028757600080fd5b806363ffab311461020b57806370b3ae23146102135780637284e4161461022657806375dd49d31461022e57600080fd5b806347c87cdc116100e957806347c87cdc14610184578063481c6a75146101a45780634a79d50c146101cf5780634b4d0f54146101d75780635001f3b5146101f857600080fd5b80633197cbb61461011b57806340cb0b7014610137578063466c523e1461014c5780634717f97c1461016f575b600080fd5b61012460065481565b6040519081526020015b60405180910390f35b61013f61029a565b60405161012e9190610f3f565b61015f61015a366004610d04565b61041d565b604051901515815260200161012e565b610177610487565b60405161012e9190610fc3565b610197610192366004610d04565b610509565b60405161012e9190610ffb565b6001546101b7906001600160a01b031681565b6040516001600160a01b03909116815260200161012e565b6101976105d7565b6101ea6101e5366004610e8f565b610665565b60405161012e92919061100e565b6000546101b7906001600160a01b031681565b6101976107a9565b610124610221366004610e8f565b6107b6565b6101976107d7565b6102366107e4565b60405161012e9190610ef2565b61012460055481565b61015f61025a366004610d2b565b610866565b6002546101b7906001600160a01b031681565b610285610280366004610e2e565b6108f4565b005b61015f610295366004610df3565b610a08565b60606007805480602002602001604051908101604052809291908181526020016000905b8282101561041457838290600052602060002090600202016040518060400160405290816000820180546102f1906110bb565b80601f016020809104026020016040519081016040528092919081815260200182805461031d906110bb565b801561036a5780601f1061033f5761010080835404028352916020019161036a565b820191906000526020600020905b81548152906001019060200180831161034d57829003601f168201915b50505050508152602001600182018054610383906110bb565b80601f01602080910402602001604051908101604052809291908181526020018280546103af906110bb565b80156103fc5780601f106103d1576101008083540402835291602001916103fc565b820191906000526020600020905b8154815290600101906020018083116103df57829003601f168201915b505050505081525050815260200190600101906102be565b50505050905090565b600b5460009061042f57506000919050565b6001600160a01b0382166000818152600a6020526040902054600b8054909190811061046b57634e487b7160e01b600052603260045260246000fd5b6000918252602090912001546001600160a01b03161492915050565b606060065442116104b35760405162461bcd60e51b81526004016104aa9061103c565b60405180910390fd5b60098054806020026020016040519081016040528092919081815260200182805480156104ff57602002820191906000526020600020905b8154815260200190600101908083116104eb575b5050505050905090565b6060600654421161052c5760405162461bcd60e51b81526004016104aa9061103c565b6001600160a01b0382166000908152600a602052604090206001018054610552906110bb565b80601f016020809104026020016040519081016040528092919081815260200182805461057e906110bb565b80156105cb5780601f106105a0576101008083540402835291602001916105cb565b820191906000526020600020905b8154815290600101906020018083116105ae57829003601f168201915b50505050509050919050565b600380546105e4906110bb565b80601f0160208091040260200160405190810160405280929190818152602001828054610610906110bb565b801561065d5780601f106106325761010080835404028352916020019161065d565b820191906000526020600020905b81548152906001019060200180831161064057829003601f168201915b505050505081565b6007818154811061067557600080fd5b9060005260206000209060020201600091509050806000018054610698906110bb565b80601f01602080910402602001604051908101604052809291908181526020018280546106c4906110bb565b80156107115780601f106106e657610100808354040283529160200191610711565b820191906000526020600020905b8154815290600101906020018083116106f457829003601f168201915b505050505090806001018054610726906110bb565b80601f0160208091040260200160405190810160405280929190818152602001828054610752906110bb565b801561079f5780601f106107745761010080835404028352916020019161079f565b820191906000526020600020905b81548152906001019060200180831161078257829003601f168201915b5050505050905082565b600880546105e4906110bb565b600981815481106107c657600080fd5b600091825260209091200154905081565b600480546105e4906110bb565b606060065442116108075760405162461bcd60e51b81526004016104aa9061103c565b600b8054806020026020016040519081016040528092919081815260200182805480156104ff57602002820191906000526020600020905b81546001600160a01b0316815260019091019060200180831161083f575050505050905090565b6001546000906001600160a01b031633146108b75760405162461bcd60e51b815260206004820152601160248201527027b7363c9030b236b4b734b9ba30ba37b960791b60448201526064016104aa565b60065442116108d85760405162461bcd60e51b81526004016104aa9061103c565b81516108eb906009906020850190610bc6565b50600192915050565b6001546001600160a01b031633146109425760405162461bcd60e51b815260206004820152601160248201527027b7363c9030b236b4b734b9ba30ba37b960791b60448201526064016104aa565b60055442106109885760405162461bcd60e51b81526020600482015260126024820152714f6e6c79206265666f726520766f74696e6760701b60448201526064016104aa565b604080518082019091528281526020808201839052600780546001810182556000919091528251805160029092027fa66cc928b5edb82af9bd49922954155ab7b0942694bea4ce44661d9a8736c68801926109e892849290910190610c11565b506020828101518051610a019260018501920190610c11565b5050505050565b600060055442118015610a1c575060065442105b610a5d5760405162461bcd60e51b81526020600482015260126024820152714f6e6c7920647572696e6720766f74696e6760701b60448201526064016104aa565b610a6633610b3f565b610aa25760405162461bcd60e51b815260206004820152600d60248201526c139bdd08149959da5cdd195c99609a1b60448201526064016104aa565b336000908152600a602090815260409091208351610ac892600190920191850190610c11565b50610ad23361041d565b610b3757600b80546001818101835560008390527f0175b7a638427703f0dbe7bb9bbf987a2551717b34e79f33b5b1008d1fa01db990910180546001600160a01b031916331790559054610b269190611098565b336000908152600a60205260409020555b506001919050565b60025460405163a7771ee360e01b81526001600160a01b0383811660048301526000921690819063a7771ee39060240160206040518083038186803b158015610b8757600080fd5b505afa158015610b9b573d6000803e3d6000fd5b505050506040513d601f19601f82011682018060405250810190610bbf9190610dd3565b9392505050565b828054828255906000526020600020908101928215610c01579160200282015b82811115610c01578251825591602001919060010190610be6565b50610c0d929150610c84565b5090565b828054610c1d906110bb565b90600052602060002090601f016020900481019282610c3f5760008555610c01565b82601f10610c5857805160ff1916838001178555610c01565b82800160010185558215610c015791820182811115610c01578251825591602001919060010190610be6565b5b80821115610c0d5760008155600101610c85565b600082601f830112610ca9578081fd5b813567ffffffffffffffff811115610cc357610cc36110f6565b610cd6601f8201601f1916602001611067565b818152846020838601011115610cea578283fd5b816020850160208301379081016020019190915292915050565b600060208284031215610d15578081fd5b81356001600160a01b0381168114610bbf578182fd5b60006020808385031215610d3d578182fd5b823567ffffffffffffffff80821115610d54578384fd5b818501915085601f830112610d67578384fd5b813581811115610d7957610d796110f6565b8060051b9150610d8a848301611067565b8181528481019084860184860187018a1015610da4578788fd5b8795505b83861015610dc6578035835260019590950194918601918601610da8565b5098975050505050505050565b600060208284031215610de4578081fd5b81518015158114610bbf578182fd5b600060208284031215610e04578081fd5b813567ffffffffffffffff811115610e1a578182fd5b610e2684828501610c99565b949350505050565b60008060408385031215610e40578081fd5b823567ffffffffffffffff80821115610e57578283fd5b610e6386838701610c99565b93506020850135915080821115610e78578283fd5b50610e8585828601610c99565b9150509250929050565b600060208284031215610ea0578081fd5b5035919050565b60008151808452815b81811015610ecc57602081850181015186830182015201610eb0565b81811115610edd5782602083870101525b50601f01601f19169290920160200192915050565b6020808252825182820181905260009190848201906040850190845b81811015610f335783516001600160a01b031683529284019291840191600101610f0e565b50909695505050505050565b60006020808301818452808551808352604092508286019150828160051b870101848801865b83811015610fb557888303603f1901855281518051878552610f8988860182610ea7565b91890151858303868b0152919050610fa18183610ea7565b968901969450505090860190600101610f65565b509098975050505050505050565b6020808252825182820181905260009190848201906040850190845b81811015610f3357835183529284019291840191600101610fdf565b602081526000610bbf6020830184610ea7565b6040815260006110216040830185610ea7565b82810360208401526110338185610ea7565b95945050505050565b6020808252601190820152704f6e6c7920616674657220766f74696e6760781b604082015260600190565b604051601f8201601f1916810167ffffffffffffffff81118282101715611090576110906110f6565b604052919050565b6000828210156110b657634e487b7160e01b81526011600452602481fd5b500390565b600181811c908216806110cf57607f821691505b602082108114156110f057634e487b7160e01b600052602260045260246000fd5b50919050565b634e487b7160e01b600052604160045260246000fdfea2646970667358221220f2c1a44298e44fc5f01a87fbe7d3709639acc7f735a965adc319f9d58efdd66864736f6c63430008040033",
    "sourcePath": "c:/Users/1/Desktop/my-project/src/contracts/voting.sol",
    "compiler": {
        "name": "solc",
        "version": "0.8.4+commit.c7e474f2"
    },
    "functionHashes": {
        "Registration()": "e8a37919",
        "addParam(string,string)": "ead0efba",
        "base()": "5001f3b5",
        "description()": "7284e416",
        "endTime()": "3197cbb6",
        "getEncryptedVots(address)": "47c87cdc",
        "getListOfVoted()": "75dd49d3",
        "getParametrs()": "40cb0b70",
        "getResults()": "4717f97c",
        "manager()": "481c6a75",
        "parametrs(uint256)": "4b4d0f54",
        "publicKey()": "63ffab31",
        "publishResults(uint256[])": "84d1d91e",
        "publishedResult(uint256)": "70b3ae23",
        "time_start()": "78e97925",
        "title()": "4a79d50c",
        "vote(string)": "fc36e15b",
        "yetVoted(address)": "466c523e"
    },
    "gasEstimates": {
        "creation": {
            "codeDepositCost": "883600",
            "executionCost": "infinite",
            "totalCost": "infinite"
        },
        "external": {
            "Registration()": "1103",
            "addParam(string,string)": "infinite",
            "base()": "1148",
            "description()": "infinite",
            "endTime()": "1008",
            "getEncryptedVots(address)": "infinite",
            "getListOfVoted()": "infinite",
            "getParametrs()": "infinite",
            "getResults()": "infinite",
            "manager()": "1082",
            "parametrs(uint256)": "infinite",
            "publicKey()": "infinite",
            "publishResults(uint256[])": "infinite",
            "publishedResult(uint256)": "2009",
            "time_start()": "1006",
            "title()": "infinite",
            "vote(string)": "infinite",
            "yetVoted(address)": "3837"
        },
        "internal": {
            "yetRegistered(address)": "infinite"
        }
    }
}