{
  "contractName": "BaseofVotings",
  "abi": [
    {
      "inputs": [
        {
          "internalType": "address",
          "name": "_registration2",
          "type": "address"
        }
      ],
      "stateMutability": "nonpayable",
      "type": "constructor"
    },
    {
      "inputs": [],
      "name": "Admin",
      "outputs": [
        {
          "internalType": "address",
          "name": "",
          "type": "address"
        }
      ],
      "stateMutability": "view",
      "type": "function",
      "constant": true
    },
    {
      "inputs": [
        {
          "internalType": "uint256",
          "name": "",
          "type": "uint256"
        }
      ],
      "name": "created_votings",
      "outputs": [
        {
          "internalType": "address",
          "name": "",
          "type": "address"
        }
      ],
      "stateMutability": "view",
      "type": "function",
      "constant": true
    },
    {
      "inputs": [],
      "name": "registration2",
      "outputs": [
        {
          "internalType": "address",
          "name": "",
          "type": "address"
        }
      ],
      "stateMutability": "view",
      "type": "function",
      "constant": true
    },
    {
      "inputs": [
        {
          "internalType": "string",
          "name": "_encryption_key",
          "type": "string"
        },
        {
          "internalType": "string",
          "name": "_title",
          "type": "string"
        },
        {
          "internalType": "string",
          "name": "_description",
          "type": "string"
        },
        {
          "internalType": "uint256",
          "name": "_time_start",
          "type": "uint256"
        },
        {
          "internalType": "uint256",
          "name": "_endTime",
          "type": "uint256"
        }
      ],
      "name": "create_voting",
      "outputs": [],
      "stateMutability": "nonpayable",
      "type": "function"
    },
    {
      "inputs": [],
      "name": "all_created_votings",
      "outputs": [
        {
          "internalType": "address[]",
          "name": "",
          "type": "address[]"
        }
      ],
      "stateMutability": "view",
      "type": "function",
      "constant": true
    }
  ],
  "bytecode": "0x608060405234801561001057600080fd5b50604051612e2d380380612e2d833981810160405281019061003291906100ce565b336000806101000a81548173ffffffffffffffffffffffffffffffffffffffff021916908373ffffffffffffffffffffffffffffffffffffffff16021790555080600260006101000a81548173ffffffffffffffffffffffffffffffffffffffff021916908373ffffffffffffffffffffffffffffffffffffffff16021790555050610140565b6000815190506100c881610129565b92915050565b6000602082840312156100e057600080fd5b60006100ee848285016100b9565b91505092915050565b600061010282610109565b9050919050565b600073ffffffffffffffffffffffffffffffffffffffff82169050919050565b610132816100f7565b811461013d57600080fd5b50565b612cde8061014f6000396000f3fe60806040523480156200001157600080fd5b50600436106200005e5760003560e01c80631ce8ee3c146200006357806343b67452146200009957806384f6fe9314620000bb578063b4b23b2014620000db578063ff1b636d14620000fd575b600080fd5b6200008160048036038101906200007b91906200051e565b6200011f565b60405162000090919062000669565b60405180910390f35b620000a36200015f565b604051620000b2919062000718565b60405180910390f35b620000d96004803603810190620000d3919062000451565b620001ef565b005b620000e562000370565b604051620000f4919062000669565b60405180910390f35b6200010762000396565b60405162000116919062000669565b60405180910390f35b600181815481106200013057600080fd5b906000526020600020016000915054906101000a900473ffffffffffffffffffffffffffffffffffffffff1681565b60606001805480602002602001604051908101604052809291908181526020018280548015620001e557602002820191906000526020600020905b8160009054906101000a900473ffffffffffffffffffffffffffffffffffffffff1673ffffffffffffffffffffffffffffffffffffffff16815260200190600101908083116200019a575b5050505050905090565b60008054906101000a900473ffffffffffffffffffffffffffffffffffffffff1673ffffffffffffffffffffffffffffffffffffffff163373ffffffffffffffffffffffffffffffffffffffff161462000280576040517f08c379a000000000000000000000000000000000000000000000000000000000815260040162000277906200073c565b60405180910390fd5b600160008054906101000a900473ffffffffffffffffffffffffffffffffffffffff16600260009054906101000a900473ffffffffffffffffffffffffffffffffffffffff168787878787604051620002d990620003ba565b620002eb979695949392919062000686565b604051809103906000f08015801562000308573d6000803e3d6000fd5b509080600181540180825580915050600190039060005260206000200160009091909190916101000a81548173ffffffffffffffffffffffffffffffffffffffff021916908373ffffffffffffffffffffffffffffffffffffffff1602179055505050505050565b600260009054906101000a900473ffffffffffffffffffffffffffffffffffffffff1681565b60008054906101000a900473ffffffffffffffffffffffffffffffffffffffff1681565b61235a806200094f83390190565b6000620003df620003d98462000787565b6200075e565b905082815260208101848484011115620003f857600080fd5b6200040584828562000850565b509392505050565b600082601f8301126200041f57600080fd5b813562000431848260208601620003c8565b91505092915050565b6000813590506200044b8162000934565b92915050565b600080600080600060a086880312156200046a57600080fd5b600086013567ffffffffffffffff8111156200048557600080fd5b62000493888289016200040d565b955050602086013567ffffffffffffffff811115620004b157600080fd5b620004bf888289016200040d565b945050604086013567ffffffffffffffff811115620004dd57600080fd5b620004eb888289016200040d565b9350506060620004fe888289016200043a565b925050608062000511888289016200043a565b9150509295509295909350565b6000602082840312156200053157600080fd5b600062000541848285016200043a565b91505092915050565b600062000558838362000564565b60208301905092915050565b6200056f8162000812565b82525050565b620005808162000812565b82525050565b60006200059382620007cd565b6200059f8185620007f0565b9350620005ac83620007bd565b8060005b83811015620005e3578151620005c788826200054a565b9750620005d483620007e3565b925050600181019050620005b0565b5085935050505092915050565b6000620005fd82620007d8565b62000609818562000801565b93506200061b8185602086016200085f565b6200062681620008fa565b840191505092915050565b600062000640600a8362000801565b91506200064d826200090b565b602082019050919050565b620006638162000846565b82525050565b600060208201905062000680600083018462000575565b92915050565b600060e0820190506200069d600083018a62000575565b620006ac602083018962000575565b8181036040830152620006c08188620005f0565b90508181036060830152620006d68187620005f0565b90508181036080830152620006ec8186620005f0565b9050620006fd60a083018562000658565b6200070c60c083018462000658565b98975050505050505050565b6000602082019050818103600083015262000734818462000586565b905092915050565b60006020820190508181036000830152620007578162000631565b9050919050565b60006200076a6200077d565b905062000778828262000895565b919050565b6000604051905090565b600067ffffffffffffffff821115620007a557620007a4620008cb565b5b620007b082620008fa565b9050602081019050919050565b6000819050602082019050919050565b600081519050919050565b600081519050919050565b6000602082019050919050565b600082825260208201905092915050565b600082825260208201905092915050565b60006200081f8262000826565b9050919050565b600073ffffffffffffffffffffffffffffffffffffffff82169050919050565b6000819050919050565b82818337600083830152505050565b60005b838110156200087f57808201518184015260208101905062000862565b838111156200088f576000848401525b50505050565b620008a082620008fa565b810181811067ffffffffffffffff82111715620008c257620008c1620008cb565b5b80604052505050565b7f4e487b7100000000000000000000000000000000000000000000000000000000600052604160045260246000fd5b6000601f19601f8301169050919050565b7f4f6e6c792061646d696e00000000000000000000000000000000000000000000600082015250565b6200093f8162000846565b81146200094b57600080fd5b5056fe60806040523480156200001157600080fd5b506040516200235a3803806200235a8339818101604052810190620000379190620002af565b336000806101000a81548173ffffffffffffffffffffffffffffffffffffffff021916908373ffffffffffffffffffffffffffffffffffffffff16021790555085600160006101000a81548173ffffffffffffffffffffffffffffffffffffffff021916908373ffffffffffffffffffffffffffffffffffffffff16021790555086600360006101000a81548173ffffffffffffffffffffffffffffffffffffffff021916908373ffffffffffffffffffffffffffffffffffffffff1602179055508460029080519060200190620001119291906200015f565b5083600490805190602001906200012a9291906200015f565b508260059080519060200190620001439291906200015f565b5081600681905550806007819055505050505050505062000589565b8280546200016d906200047a565b90600052602060002090601f016020900481019282620001915760008555620001dd565b82601f10620001ac57805160ff1916838001178555620001dd565b82800160010185558215620001dd579182015b82811115620001dc578251825591602001919060010190620001bf565b5b509050620001ec9190620001f0565b5090565b5b808211156200020b576000816000905550600101620001f1565b5090565b6000620002266200022084620003d0565b620003a7565b9050828152602081018484840111156200023f57600080fd5b6200024c84828562000444565b509392505050565b600081519050620002658162000555565b92915050565b600082601f8301126200027d57600080fd5b81516200028f8482602086016200020f565b91505092915050565b600081519050620002a9816200056f565b92915050565b600080600080600080600060e0888a031215620002cb57600080fd5b6000620002db8a828b0162000254565b9750506020620002ee8a828b0162000254565b965050604088015167ffffffffffffffff8111156200030c57600080fd5b6200031a8a828b016200026b565b955050606088015167ffffffffffffffff8111156200033857600080fd5b620003468a828b016200026b565b945050608088015167ffffffffffffffff8111156200036457600080fd5b620003728a828b016200026b565b93505060a0620003858a828b0162000298565b92505060c0620003988a828b0162000298565b91505092959891949750929550565b6000620003b3620003c6565b9050620003c18282620004b0565b919050565b6000604051905090565b600067ffffffffffffffff821115620003ee57620003ed62000515565b5b620003f98262000544565b9050602081019050919050565b600062000413826200041a565b9050919050565b600073ffffffffffffffffffffffffffffffffffffffff82169050919050565b6000819050919050565b60005b838110156200046457808201518184015260208101905062000447565b8381111562000474576000848401525b50505050565b600060028204905060018216806200049357607f821691505b60208210811415620004aa57620004a9620004e6565b5b50919050565b620004bb8262000544565b810181811067ffffffffffffffff82111715620004dd57620004dc62000515565b5b80604052505050565b7f4e487b7100000000000000000000000000000000000000000000000000000000600052602260045260246000fd5b7f4e487b7100000000000000000000000000000000000000000000000000000000600052604160045260246000fd5b6000601f19601f8301169050919050565b620005608162000406565b81146200056c57600080fd5b50565b6200057a816200043a565b81146200058657600080fd5b50565b611dc180620005996000396000f3fe608060405234801561001057600080fd5b50600436106101165760003560e01c8063b20da0b4116100a2578063daa53fa811610071578063daa53fa8146102fa578063e8a3791914610318578063edfc5c7a14610336578063fc36e15b14610354578063ff1b636d1461038457610116565b8063b20da0b41461024c578063b3c134911461027c578063be71d8dd1461029a578063cc09967d146102ca57610116565b80635001f3b5116100e95780635001f3b5146101a457806363ffab31146101c25780637284e416146101e0578063add2b2bf146101fe578063b1581c561461022e57610116565b806309aba7aa1461011b5780633197cbb6146101375780634a79d50c146101555780634b4d0f5414610173575b600080fd5b610135600480360381019061013091906113f6565b6103a2565b005b61013f6104f6565b60405161014c9190611945565b60405180910390f35b61015d6104fc565b60405161016a919061184c565b60405180910390f35b61018d60048036038101906101889190611462565b61058a565b60405161019b92919061186e565b60405180910390f35b6101ac6106ce565b6040516101b991906117b0565b60405180910390f35b6101ca6106f2565b6040516101d7919061184c565b60405180910390f35b6101e8610780565b6040516101f5919061184c565b60405180910390f35b61021860048036038101906102139190611462565b61080e565b6040516102259190611945565b60405180910390f35b610236610832565b6040516102439190611945565b60405180910390f35b61026660048036038101906102619190611322565b610838565b604051610273919061184c565b60405180910390f35b610284610950565b60405161029191906117cb565b60405180910390f35b6102b460048036038101906102af9190611322565b610a22565b6040516102c19190611831565b60405180910390f35b6102e460048036038101906102df919061134b565b610b17565b6040516102f19190611831565b60405180910390f35b610302610c0d565b60405161030f919061180f565b60405180910390f35b610320610ca9565b60405161032d91906117b0565b60405180910390f35b61033e610ccf565b60405161034b91906117ed565b60405180910390f35b61036e600480360381019061036991906113b5565b610e52565b60405161037b9190611831565b60405180910390f35b61038c611016565b60405161039991906117b0565b60405180910390f35b600360009054906101000a900473ffffffffffffffffffffffffffffffffffffffff1673ffffffffffffffffffffffffffffffffffffffff163373ffffffffffffffffffffffffffffffffffffffff1614610432576040517f08c379a000000000000000000000000000000000000000000000000000000000815260040161042990611925565b60405180910390fd5b6006544210610476576040517f08c379a000000000000000000000000000000000000000000000000000000000815260040161046d906118c5565b60405180910390fd5b6008604051806040016040528084815260200183815250908060018154018082558091505060019003906000526020600020906002020160009091909190915060008201518160000190805190602001906104d29291906110f5565b5060208201518160010190805190602001906104ef9291906110f5565b5050505050565b60075481565b6004805461050990611b78565b80601f016020809104026020016040519081016040528092919081815260200182805461053590611b78565b80156105825780601f1061055757610100808354040283529160200191610582565b820191906000526020600020905b81548152906001019060200180831161056557829003601f168201915b505050505081565b6008818154811061059a57600080fd5b90600052602060002090600202016000915090508060000180546105bd90611b78565b80601f01602080910402602001604051908101604052809291908181526020018280546105e990611b78565b80156106365780601f1061060b57610100808354040283529160200191610636565b820191906000526020600020905b81548152906001019060200180831161061957829003601f168201915b50505050509080600101805461064b90611b78565b80601f016020809104026020016040519081016040528092919081815260200182805461067790611b78565b80156106c45780601f10610699576101008083540402835291602001916106c4565b820191906000526020600020905b8154815290600101906020018083116106a757829003601f168201915b5050505050905082565b60008054906101000a900473ffffffffffffffffffffffffffffffffffffffff1681565b600280546106ff90611b78565b80601f016020809104026020016040519081016040528092919081815260200182805461072b90611b78565b80156107785780601f1061074d57610100808354040283529160200191610778565b820191906000526020600020905b81548152906001019060200180831161075b57829003601f168201915b505050505081565b6005805461078d90611b78565b80601f01602080910402602001604051908101604052809291908181526020018280546107b990611b78565b80156108065780601f106107db57610100808354040283529160200191610806565b820191906000526020600020905b8154815290600101906020018083116107e957829003601f168201915b505050505081565b6009818154811061081e57600080fd5b906000526020600020016000915090505481565b60065481565b6060600754421161087e576040517f08c379a0000000000000000000000000000000000000000000000000000000008152600401610875906118a5565b60405180910390fd5b600a60008373ffffffffffffffffffffffffffffffffffffffff1673ffffffffffffffffffffffffffffffffffffffff16815260200190815260200160002060010180546108cb90611b78565b80601f01602080910402602001604051908101604052809291908181526020018280546108f790611b78565b80156109445780601f1061091957610100808354040283529160200191610944565b820191906000526020600020905b81548152906001019060200180831161092757829003601f168201915b50505050509050919050565b60606007544211610996576040517f08c379a000000000000000000000000000000000000000000000000000000000815260040161098d906118a5565b60405180910390fd5b600b805480602002602001604051908101604052809291908181526020018280548015610a1857602002820191906000526020600020905b8160009054906101000a900473ffffffffffffffffffffffffffffffffffffffff1673ffffffffffffffffffffffffffffffffffffffff16815260200190600101908083116109ce575b5050505050905090565b600080600b805490501415610a3a5760009050610b12565b8173ffffffffffffffffffffffffffffffffffffffff16600b600a60008573ffffffffffffffffffffffffffffffffffffffff1673ffffffffffffffffffffffffffffffffffffffff1681526020019081526020016000206000015481548110610acd577f4e487b7100000000000000000000000000000000000000000000000000000000600052603260045260246000fd5b9060005260206000200160009054906101000a900473ffffffffffffffffffffffffffffffffffffffff1673ffffffffffffffffffffffffffffffffffffffff161490505b919050565b6000600360009054906101000a900473ffffffffffffffffffffffffffffffffffffffff1673ffffffffffffffffffffffffffffffffffffffff163373ffffffffffffffffffffffffffffffffffffffff1614610ba9576040517f08c379a0000000000000000000000000000000000000000000000000000000008152600401610ba090611925565b60405180910390fd5b6007544211610bed576040517f08c379a0000000000000000000000000000000000000000000000000000000008152600401610be4906118a5565b60405180910390fd5b8160099080519060200190610c0392919061117b565b5060019050919050565b60606007544211610c53576040517f08c379a0000000000000000000000000000000000000000000000000000000008152600401610c4a906118a5565b60405180910390fd5b6009805480602002602001604051908101604052809291908181526020018280548015610c9f57602002820191906000526020600020905b815481526020019060010190808311610c8b575b5050505050905090565b600160009054906101000a900473ffffffffffffffffffffffffffffffffffffffff1681565b60606008805480602002602001604051908101604052809291908181526020016000905b82821015610e495783829060005260206000209060020201604051806040016040529081600082018054610d2690611b78565b80601f0160208091040260200160405190810160405280929190818152602001828054610d5290611b78565b8015610d9f5780601f10610d7457610100808354040283529160200191610d9f565b820191906000526020600020905b815481529060010190602001808311610d8257829003601f168201915b50505050508152602001600182018054610db890611b78565b80601f0160208091040260200160405190810160405280929190818152602001828054610de490611b78565b8015610e315780601f10610e0657610100808354040283529160200191610e31565b820191906000526020600020905b815481529060010190602001808311610e1457829003601f168201915b50505050508152505081526020019060010190610cf3565b50505050905090565b600060065442118015610e66575060075442105b610ea5576040517f08c379a0000000000000000000000000000000000000000000000000000000008152600401610e9c90611905565b60405180910390fd5b610eae3361103c565b610eed576040517f08c379a0000000000000000000000000000000000000000000000000000000008152600401610ee4906118e5565b60405180910390fd5b81600a60003373ffffffffffffffffffffffffffffffffffffffff1673ffffffffffffffffffffffffffffffffffffffff1681526020019081526020016000206001019080519060200190610f439291906110f5565b50610f4d33610a22565b61100d57600b339080600181540180825580915050600190039060005260206000200160009091909190916101000a81548173ffffffffffffffffffffffffffffffffffffffff021916908373ffffffffffffffffffffffffffffffffffffffff1602179055506001600b80549050610fc69190611aba565b600a60003373ffffffffffffffffffffffffffffffffffffffff1673ffffffffffffffffffffffffffffffffffffffff168152602001908152602001600020600001819055505b60019050919050565b600360009054906101000a900473ffffffffffffffffffffffffffffffffffffffff1681565b600080600160009054906101000a900473ffffffffffffffffffffffffffffffffffffffff1690508073ffffffffffffffffffffffffffffffffffffffff1663625ee6d5846040518263ffffffff1660e01b815260040161109d91906117b0565b60206040518083038186803b1580156110b557600080fd5b505afa1580156110c9573d6000803e3d6000fd5b505050506040513d601f19601f820116820180604052508101906110ed919061138c565b915050919050565b82805461110190611b78565b90600052602060002090601f016020900481019282611123576000855561116a565b82601f1061113c57805160ff191683800117855561116a565b8280016001018555821561116a579182015b8281111561116957825182559160200191906001019061114e565b5b50905061117791906111c8565b5090565b8280548282559060005260206000209081019282156111b7579160200282015b828111156111b657825182559160200191906001019061119b565b5b5090506111c491906111c8565b5090565b5b808211156111e15760008160009055506001016111c9565b5090565b60006111f86111f384611985565b611960565b9050808382526020820190508285602086028201111561121757600080fd5b60005b85811015611247578161122d888261130d565b84526020840193506020830192505060018101905061121a565b5050509392505050565b600061126461125f846119b1565b611960565b90508281526020810184848401111561127c57600080fd5b611287848285611b36565b509392505050565b60008135905061129e81611d46565b92915050565b600082601f8301126112b557600080fd5b81356112c58482602086016111e5565b91505092915050565b6000815190506112dd81611d5d565b92915050565b600082601f8301126112f457600080fd5b8135611304848260208601611251565b91505092915050565b60008135905061131c81611d74565b92915050565b60006020828403121561133457600080fd5b60006113428482850161128f565b91505092915050565b60006020828403121561135d57600080fd5b600082013567ffffffffffffffff81111561137757600080fd5b611383848285016112a4565b91505092915050565b60006020828403121561139e57600080fd5b60006113ac848285016112ce565b91505092915050565b6000602082840312156113c757600080fd5b600082013567ffffffffffffffff8111156113e157600080fd5b6113ed848285016112e3565b91505092915050565b6000806040838503121561140957600080fd5b600083013567ffffffffffffffff81111561142357600080fd5b61142f858286016112e3565b925050602083013567ffffffffffffffff81111561144c57600080fd5b611458858286016112e3565b9150509250929050565b60006020828403121561147457600080fd5b60006114828482850161130d565b91505092915050565b600061149783836114cf565b60208301905092915050565b60006114af838361174e565b905092915050565b60006114c38383611792565b60208301905092915050565b6114d881611aee565b82525050565b6114e781611aee565b82525050565b60006114f882611a12565b6115028185611a65565b935061150d836119e2565b8060005b8381101561153e578151611525888261148b565b975061153083611a3e565b925050600181019050611511565b5085935050505092915050565b600061155682611a1d565b6115608185611a76565b935083602082028501611572856119f2565b8060005b858110156115ae578484038952815161158f85826114a3565b945061159a83611a4b565b925060208a01995050600181019050611576565b50829750879550505050505092915050565b60006115cb82611a28565b6115d58185611a87565b93506115e083611a02565b8060005b838110156116115781516115f888826114b7565b975061160383611a58565b9250506001810190506115e4565b5085935050505092915050565b61162781611b00565b82525050565b600061163882611a33565b6116428185611a98565b9350611652818560208601611b45565b61165b81611c68565b840191505092915050565b600061167182611a33565b61167b8185611aa9565b935061168b818560208601611b45565b61169481611c68565b840191505092915050565b60006116ac601183611aa9565b91506116b782611c79565b602082019050919050565b60006116cf601283611aa9565b91506116da82611ca2565b602082019050919050565b60006116f2600d83611aa9565b91506116fd82611ccb565b602082019050919050565b6000611715601283611aa9565b915061172082611cf4565b602082019050919050565b6000611738601183611aa9565b915061174382611d1d565b602082019050919050565b6000604083016000830151848203600086015261176b828261162d565b91505060208301518482036020860152611785828261162d565b9150508091505092915050565b61179b81611b2c565b82525050565b6117aa81611b2c565b82525050565b60006020820190506117c560008301846114de565b92915050565b600060208201905081810360008301526117e581846114ed565b905092915050565b60006020820190508181036000830152611807818461154b565b905092915050565b6000602082019050818103600083015261182981846115c0565b905092915050565b6000602082019050611846600083018461161e565b92915050565b600060208201905081810360008301526118668184611666565b905092915050565b600060408201905081810360008301526118888185611666565b9050818103602083015261189c8184611666565b90509392505050565b600060208201905081810360008301526118be8161169f565b9050919050565b600060208201905081810360008301526118de816116c2565b9050919050565b600060208201905081810360008301526118fe816116e5565b9050919050565b6000602082019050818103600083015261191e81611708565b9050919050565b6000602082019050818103600083015261193e8161172b565b9050919050565b600060208201905061195a60008301846117a1565b92915050565b600061196a61197b565b90506119768282611baa565b919050565b6000604051905090565b600067ffffffffffffffff8211156119a05761199f611c39565b5b602082029050602081019050919050565b600067ffffffffffffffff8211156119cc576119cb611c39565b5b6119d582611c68565b9050602081019050919050565b6000819050602082019050919050565b6000819050602082019050919050565b6000819050602082019050919050565b600081519050919050565b600081519050919050565b600081519050919050565b600081519050919050565b6000602082019050919050565b6000602082019050919050565b6000602082019050919050565b600082825260208201905092915050565b600082825260208201905092915050565b600082825260208201905092915050565b600082825260208201905092915050565b600082825260208201905092915050565b6000611ac582611b2c565b9150611ad083611b2c565b925082821015611ae357611ae2611bdb565b5b828203905092915050565b6000611af982611b0c565b9050919050565b60008115159050919050565b600073ffffffffffffffffffffffffffffffffffffffff82169050919050565b6000819050919050565b82818337600083830152505050565b60005b83811015611b63578082015181840152602081019050611b48565b83811115611b72576000848401525b50505050565b60006002820490506001821680611b9057607f821691505b60208210811415611ba457611ba3611c0a565b5b50919050565b611bb382611c68565b810181811067ffffffffffffffff82111715611bd257611bd1611c39565b5b80604052505050565b7f4e487b7100000000000000000000000000000000000000000000000000000000600052601160045260246000fd5b7f4e487b7100000000000000000000000000000000000000000000000000000000600052602260045260246000fd5b7f4e487b7100000000000000000000000000000000000000000000000000000000600052604160045260246000fd5b6000601f19601f8301169050919050565b7f4f6e6c7920616674657220766f74696e67000000000000000000000000000000600082015250565b7f4f6e6c79206265666f726520766f74696e670000000000000000000000000000600082015250565b7f4e6f742052656769737465726400000000000000000000000000000000000000600082015250565b7f4f6e6c7920647572696e6720766f74696e670000000000000000000000000000600082015250565b7f4f6e6c792061646d696e69737461746f72000000000000000000000000000000600082015250565b611d4f81611aee565b8114611d5a57600080fd5b50565b611d6681611b00565b8114611d7157600080fd5b50565b611d7d81611b2c565b8114611d8857600080fd5b5056fea2646970667358221220777c317aac23bf735cd45bf897e940d69f5f119f43189e51ead4be5dec56c62764736f6c63430008040033a2646970667358221220871f761d3cd94f5b3c05c20caf90dd6a6e418d00dc69150bec9a09f4bc28d37664736f6c63430008040033",
  "immutableReferences": {},
  "source": "pragma solidity ^0.8.4;\r\n\r\nimport \"./Voting.sol\";\r\n\r\ncontract BaseofVotings {\r\n    address public Admin;\r\n    address[] public created_votings;\r\n    address public registration2;\r\n    ///  ,   ,    ,     \r\n    constructor(address _registration2) {\r\n        Admin = msg.sender;\r\n        registration2 = _registration2;\r\n    }\r\n    //   \r\n    function create_voting(string memory _encryption_key,string memory _title,string memory _description,uint _time_start,uint _endTime)\r\n        public  {\r\n        require(msg.sender == Admin, \"Only admin\");\r\n        created_votings.push(address(new Voting(Admin,registration2,_encryption_key,_title,_description,_time_start,_endTime)));\r\n    }\r\n    //      \r\n    function all_created_votings() public view returns(address[] memory) {\r\n        return created_votings;\r\n    }\r\n}",
  "sourcePath": "C:/Users/1/Desktop/ethereum-voting/src/contracts/BaseofVotings.sol",
  "compiler": {
    "name": "solc",
    "version": "0.8.4+commit.c7e474f2.Emscripten.clang"
  },
  "schemaVersion": "3.3.4",
  "updatedAt": "2021-06-13T21:30:46.950Z",
  "networkType": "ethereum",
  "devdoc": {
    "kind": "dev",
    "methods": {},
    "version": 1
  },
  "userdoc": {
    "kind": "user",
    "methods": {
      "constructor": {
        "notice": " ,   ,    ,     "
      }
    },
    "version": 1
  }
}