{
  "contractName": "BaseofVotings",
  "abi": [
    {
      "inputs": [
        {
          "internalType": "address",
          "name": "_registration2",
          "type": "address"
        }
      ],
      "stateMutability": "nonpayable",
      "type": "constructor"
    },
    {
      "inputs": [
        {
          "internalType": "uint256",
          "name": "",
          "type": "uint256"
        }
      ],
      "name": "createdVotings",
      "outputs": [
        {
          "internalType": "address",
          "name": "",
          "type": "address"
        }
      ],
      "stateMutability": "view",
      "type": "function",
      "constant": true
    },
    {
      "inputs": [],
      "name": "manager",
      "outputs": [
        {
          "internalType": "address",
          "name": "",
          "type": "address"
        }
      ],
      "stateMutability": "view",
      "type": "function",
      "constant": true
    },
    {
      "inputs": [],
      "name": "registration2",
      "outputs": [
        {
          "internalType": "address",
          "name": "",
          "type": "address"
        }
      ],
      "stateMutability": "view",
      "type": "function",
      "constant": true
    },
    {
      "inputs": [
        {
          "internalType": "string",
          "name": "_title",
          "type": "string"
        },
        {
          "internalType": "string",
          "name": "_description",
          "type": "string"
        },
        {
          "internalType": "uint256",
          "name": "_time_start",
          "type": "uint256"
        },
        {
          "internalType": "uint256",
          "name": "_endTime",
          "type": "uint256"
        },
        {
          "internalType": "string",
          "name": "_encryptionKey",
          "type": "string"
        }
      ],
      "name": "createVoting",
      "outputs": [],
      "stateMutability": "nonpayable",
      "type": "function"
    },
    {
      "inputs": [],
      "name": "allCreatedVotings",
      "outputs": [
        {
          "internalType": "address[]",
          "name": "",
          "type": "address[]"
        }
      ],
      "stateMutability": "view",
      "type": "function",
      "constant": true
    }
  ],
  "bytecode": "0x608060405234801561001057600080fd5b50604051612e2d380380612e2d833981810160405281019061003291906100ce565b336000806101000a81548173ffffffffffffffffffffffffffffffffffffffff021916908373ffffffffffffffffffffffffffffffffffffffff16021790555080600160006101000a81548173ffffffffffffffffffffffffffffffffffffffff021916908373ffffffffffffffffffffffffffffffffffffffff16021790555050610140565b6000815190506100c881610129565b92915050565b6000602082840312156100e057600080fd5b60006100ee848285016100b9565b91505092915050565b600061010282610109565b9050919050565b600073ffffffffffffffffffffffffffffffffffffffff82169050919050565b610132816100f7565b811461013d57600080fd5b50565b612cde8061014f6000396000f3fe60806040523480156200001157600080fd5b50600436106200005e5760003560e01c80631a7836c81462000063578063481c6a7514620000835780635ad777c414620000a55780639d55300d14620000c7578063b4b23b2014620000fd575b600080fd5b6200008160048036038101906200007b919062000451565b6200011f565b005b6200008d620002a0565b6040516200009c919062000669565b60405180910390f35b620000af620002c4565b604051620000be919062000718565b60405180910390f35b620000e56004803603810190620000df91906200051e565b62000354565b604051620000f4919062000669565b60405180910390f35b6200010762000394565b60405162000116919062000669565b60405180910390f35b60008054906101000a900473ffffffffffffffffffffffffffffffffffffffff1673ffffffffffffffffffffffffffffffffffffffff163373ffffffffffffffffffffffffffffffffffffffff1614620001b0576040517f08c379a0000000000000000000000000000000000000000000000000000000008152600401620001a7906200073c565b60405180910390fd5b600260008054906101000a900473ffffffffffffffffffffffffffffffffffffffff16600160009054906101000a900473ffffffffffffffffffffffffffffffffffffffff1687878787876040516200020990620003ba565b6200021b979695949392919062000686565b604051809103906000f08015801562000238573d6000803e3d6000fd5b509080600181540180825580915050600190039060005260206000200160009091909190916101000a81548173ffffffffffffffffffffffffffffffffffffffff021916908373ffffffffffffffffffffffffffffffffffffffff1602179055505050505050565b60008054906101000a900473ffffffffffffffffffffffffffffffffffffffff1681565b606060028054806020026020016040519081016040528092919081815260200182805480156200034a57602002820191906000526020600020905b8160009054906101000a900473ffffffffffffffffffffffffffffffffffffffff1673ffffffffffffffffffffffffffffffffffffffff1681526020019060010190808311620002ff575b5050505050905090565b600281815481106200036557600080fd5b906000526020600020016000915054906101000a900473ffffffffffffffffffffffffffffffffffffffff1681565b600160009054906101000a900473ffffffffffffffffffffffffffffffffffffffff1681565b61235a806200094f83390190565b6000620003df620003d98462000787565b6200075e565b905082815260208101848484011115620003f857600080fd5b6200040584828562000850565b509392505050565b600082601f8301126200041f57600080fd5b813562000431848260208601620003c8565b91505092915050565b6000813590506200044b8162000934565b92915050565b600080600080600060a086880312156200046a57600080fd5b600086013567ffffffffffffffff8111156200048557600080fd5b62000493888289016200040d565b955050602086013567ffffffffffffffff811115620004b157600080fd5b620004bf888289016200040d565b9450506040620004d2888289016200043a565b9350506060620004e5888289016200043a565b925050608086013567ffffffffffffffff8111156200050357600080fd5b62000511888289016200040d565b9150509295509295909350565b6000602082840312156200053157600080fd5b600062000541848285016200043a565b91505092915050565b600062000558838362000564565b60208301905092915050565b6200056f8162000812565b82525050565b620005808162000812565b82525050565b60006200059382620007cd565b6200059f8185620007f0565b9350620005ac83620007bd565b8060005b83811015620005e3578151620005c788826200054a565b9750620005d483620007e3565b925050600181019050620005b0565b5085935050505092915050565b6000620005fd82620007d8565b62000609818562000801565b93506200061b8185602086016200085f565b6200062681620008fa565b840191505092915050565b600062000640600a8362000801565b91506200064d826200090b565b602082019050919050565b620006638162000846565b82525050565b600060208201905062000680600083018462000575565b92915050565b600060e0820190506200069d600083018a62000575565b620006ac602083018962000575565b8181036040830152620006c08188620005f0565b90508181036060830152620006d68187620005f0565b9050620006e7608083018662000658565b620006f660a083018562000658565b81810360c08301526200070a8184620005f0565b905098975050505050505050565b6000602082019050818103600083015262000734818462000586565b905092915050565b60006020820190508181036000830152620007578162000631565b9050919050565b60006200076a6200077d565b905062000778828262000895565b919050565b6000604051905090565b600067ffffffffffffffff821115620007a557620007a4620008cb565b5b620007b082620008fa565b9050602081019050919050565b6000819050602082019050919050565b600081519050919050565b600081519050919050565b6000602082019050919050565b600082825260208201905092915050565b600082825260208201905092915050565b60006200081f8262000826565b9050919050565b600073ffffffffffffffffffffffffffffffffffffffff82169050919050565b6000819050919050565b82818337600083830152505050565b60005b838110156200087f57808201518184015260208101905062000862565b838111156200088f576000848401525b50505050565b620008a082620008fa565b810181811067ffffffffffffffff82111715620008c257620008c1620008cb565b5b80604052505050565b7f4e487b7100000000000000000000000000000000000000000000000000000000600052604160045260246000fd5b6000601f19601f8301169050919050565b7f4f6e6c792061646d696e00000000000000000000000000000000000000000000600082015250565b6200093f8162000846565b81146200094b57600080fd5b5056fe60806040523480156200001157600080fd5b506040516200235a3803806200235a8339818101604052810190620000379190620002af565b336000806101000a81548173ffffffffffffffffffffffffffffffffffffffff021916908373ffffffffffffffffffffffffffffffffffffffff16021790555085600260006101000a81548173ffffffffffffffffffffffffffffffffffffffff021916908373ffffffffffffffffffffffffffffffffffffffff16021790555086600160006101000a81548173ffffffffffffffffffffffffffffffffffffffff021916908373ffffffffffffffffffffffffffffffffffffffff1602179055508460039080519060200190620001119291906200015f565b5083600490805190602001906200012a9291906200015f565b5082600581905550816006819055508060089080519060200190620001519291906200015f565b505050505050505062000589565b8280546200016d906200047a565b90600052602060002090601f016020900481019282620001915760008555620001dd565b82601f10620001ac57805160ff1916838001178555620001dd565b82800160010185558215620001dd579182015b82811115620001dc578251825591602001919060010190620001bf565b5b509050620001ec9190620001f0565b5090565b5b808211156200020b576000816000905550600101620001f1565b5090565b6000620002266200022084620003d0565b620003a7565b9050828152602081018484840111156200023f57600080fd5b6200024c84828562000444565b509392505050565b600081519050620002658162000555565b92915050565b600082601f8301126200027d57600080fd5b81516200028f8482602086016200020f565b91505092915050565b600081519050620002a9816200056f565b92915050565b600080600080600080600060e0888a031215620002cb57600080fd5b6000620002db8a828b0162000254565b9750506020620002ee8a828b0162000254565b965050604088015167ffffffffffffffff8111156200030c57600080fd5b6200031a8a828b016200026b565b955050606088015167ffffffffffffffff8111156200033857600080fd5b620003468a828b016200026b565b9450506080620003598a828b0162000298565b93505060a06200036c8a828b0162000298565b92505060c088015167ffffffffffffffff8111156200038a57600080fd5b620003988a828b016200026b565b91505092959891949750929550565b6000620003b3620003c6565b9050620003c18282620004b0565b919050565b6000604051905090565b600067ffffffffffffffff821115620003ee57620003ed62000515565b5b620003f98262000544565b9050602081019050919050565b600062000413826200041a565b9050919050565b600073ffffffffffffffffffffffffffffffffffffffff82169050919050565b6000819050919050565b60005b838110156200046457808201518184015260208101905062000447565b8381111562000474576000848401525b50505050565b600060028204905060018216806200049357607f821691505b60208210811415620004aa57620004a9620004e6565b5b50919050565b620004bb8262000544565b810181811067ffffffffffffffff82111715620004dd57620004dc62000515565b5b80604052505050565b7f4e487b7100000000000000000000000000000000000000000000000000000000600052602260045260246000fd5b7f4e487b7100000000000000000000000000000000000000000000000000000000600052604160045260246000fd5b6000601f19601f8301169050919050565b620005608162000406565b81146200056c57600080fd5b50565b6200057a816200043a565b81146200058657600080fd5b50565b611dc180620005996000396000f3fe608060405234801561001057600080fd5b50600436106101165760003560e01c806363ffab31116100a257806384d1d91e1161007157806384d1d91e146102ea578063b1581c561461031a578063e8a3791914610338578063ead0efba14610356578063fc36e15b1461037257610116565b806363ffab311461026057806370b3ae231461027e5780637284e416146102ae57806375dd49d3146102cc57610116565b806347c87cdc116100e957806347c87cdc146101a5578063481c6a75146101d55780634a79d50c146101f35780634b4d0f54146102115780635001f3b51461024257610116565b80633197cbb61461011b57806340cb0b7014610139578063466c523e146101575780634717f97c14610187575b600080fd5b6101236103a2565b6040516101309190611945565b60405180910390f35b6101416103a8565b60405161014e91906117ed565b60405180910390f35b610171600480360381019061016c9190611322565b61052b565b60405161017e9190611831565b60405180910390f35b61018f610620565b60405161019c919061180f565b60405180910390f35b6101bf60048036038101906101ba9190611322565b6106bc565b6040516101cc919061184c565b60405180910390f35b6101dd6107d4565b6040516101ea91906117b0565b60405180910390f35b6101fb6107fa565b604051610208919061184c565b60405180910390f35b61022b60048036038101906102269190611462565b610888565b60405161023992919061186e565b60405180910390f35b61024a6109cc565b60405161025791906117b0565b60405180910390f35b6102686109f0565b604051610275919061184c565b60405180910390f35b61029860048036038101906102939190611462565b610a7e565b6040516102a59190611945565b60405180910390f35b6102b6610aa2565b6040516102c3919061184c565b60405180910390f35b6102d4610b30565b6040516102e191906117cb565b60405180910390f35b61030460048036038101906102ff919061134b565b610c02565b6040516103119190611831565b60405180910390f35b610322610cf8565b60405161032f9190611945565b60405180910390f35b610340610cfe565b60405161034d91906117b0565b60405180910390f35b610370600480360381019061036b91906113f6565b610d24565b005b61038c600480360381019061038791906113b5565b610e78565b6040516103999190611831565b60405180910390f35b60065481565b60606007805480602002602001604051908101604052809291908181526020016000905b8282101561052257838290600052602060002090600202016040518060400160405290816000820180546103ff90611b78565b80601f016020809104026020016040519081016040528092919081815260200182805461042b90611b78565b80156104785780601f1061044d57610100808354040283529160200191610478565b820191906000526020600020905b81548152906001019060200180831161045b57829003601f168201915b5050505050815260200160018201805461049190611b78565b80601f01602080910402602001604051908101604052809291908181526020018280546104bd90611b78565b801561050a5780601f106104df5761010080835404028352916020019161050a565b820191906000526020600020905b8154815290600101906020018083116104ed57829003601f168201915b505050505081525050815260200190600101906103cc565b50505050905090565b600080600b805490501415610543576000905061061b565b8173ffffffffffffffffffffffffffffffffffffffff16600b600a60008573ffffffffffffffffffffffffffffffffffffffff1673ffffffffffffffffffffffffffffffffffffffff16815260200190815260200160002060000154815481106105d6577f4e487b7100000000000000000000000000000000000000000000000000000000600052603260045260246000fd5b9060005260206000200160009054906101000a900473ffffffffffffffffffffffffffffffffffffffff1673ffffffffffffffffffffffffffffffffffffffff161490505b919050565b60606006544211610666576040517f08c379a000000000000000000000000000000000000000000000000000000000815260040161065d906118a5565b60405180910390fd5b60098054806020026020016040519081016040528092919081815260200182805480156106b257602002820191906000526020600020905b81548152602001906001019080831161069e575b5050505050905090565b60606006544211610702576040517f08c379a00000000000000000000000000000000000000000000000000000000081526004016106f9906118a5565b60405180910390fd5b600a60008373ffffffffffffffffffffffffffffffffffffffff1673ffffffffffffffffffffffffffffffffffffffff168152602001908152602001600020600101805461074f90611b78565b80601f016020809104026020016040519081016040528092919081815260200182805461077b90611b78565b80156107c85780601f1061079d576101008083540402835291602001916107c8565b820191906000526020600020905b8154815290600101906020018083116107ab57829003601f168201915b50505050509050919050565b600160009054906101000a900473ffffffffffffffffffffffffffffffffffffffff1681565b6003805461080790611b78565b80601f016020809104026020016040519081016040528092919081815260200182805461083390611b78565b80156108805780601f1061085557610100808354040283529160200191610880565b820191906000526020600020905b81548152906001019060200180831161086357829003601f168201915b505050505081565b6007818154811061089857600080fd5b90600052602060002090600202016000915090508060000180546108bb90611b78565b80601f01602080910402602001604051908101604052809291908181526020018280546108e790611b78565b80156109345780601f1061090957610100808354040283529160200191610934565b820191906000526020600020905b81548152906001019060200180831161091757829003601f168201915b50505050509080600101805461094990611b78565b80601f016020809104026020016040519081016040528092919081815260200182805461097590611b78565b80156109c25780601f10610997576101008083540402835291602001916109c2565b820191906000526020600020905b8154815290600101906020018083116109a557829003601f168201915b5050505050905082565b60008054906101000a900473ffffffffffffffffffffffffffffffffffffffff1681565b600880546109fd90611b78565b80601f0160208091040260200160405190810160405280929190818152602001828054610a2990611b78565b8015610a765780601f10610a4b57610100808354040283529160200191610a76565b820191906000526020600020905b815481529060010190602001808311610a5957829003601f168201915b505050505081565b60098181548110610a8e57600080fd5b906000526020600020016000915090505481565b60048054610aaf90611b78565b80601f0160208091040260200160405190810160405280929190818152602001828054610adb90611b78565b8015610b285780601f10610afd57610100808354040283529160200191610b28565b820191906000526020600020905b815481529060010190602001808311610b0b57829003601f168201915b505050505081565b60606006544211610b76576040517f08c379a0000000000000000000000000000000000000000000000000000000008152600401610b6d906118a5565b60405180910390fd5b600b805480602002602001604051908101604052809291908181526020018280548015610bf857602002820191906000526020600020905b8160009054906101000a900473ffffffffffffffffffffffffffffffffffffffff1673ffffffffffffffffffffffffffffffffffffffff1681526020019060010190808311610bae575b5050505050905090565b6000600160009054906101000a900473ffffffffffffffffffffffffffffffffffffffff1673ffffffffffffffffffffffffffffffffffffffff163373ffffffffffffffffffffffffffffffffffffffff1614610c94576040517f08c379a0000000000000000000000000000000000000000000000000000000008152600401610c8b90611925565b60405180910390fd5b6006544211610cd8576040517f08c379a0000000000000000000000000000000000000000000000000000000008152600401610ccf906118a5565b60405180910390fd5b8160099080519060200190610cee9291906110f5565b5060019050919050565b60055481565b600260009054906101000a900473ffffffffffffffffffffffffffffffffffffffff1681565b600160009054906101000a900473ffffffffffffffffffffffffffffffffffffffff1673ffffffffffffffffffffffffffffffffffffffff163373ffffffffffffffffffffffffffffffffffffffff1614610db4576040517f08c379a0000000000000000000000000000000000000000000000000000000008152600401610dab90611925565b60405180910390fd5b6005544210610df8576040517f08c379a0000000000000000000000000000000000000000000000000000000008152600401610def906118c5565b60405180910390fd5b600760405180604001604052808481526020018381525090806001815401808255809150506001900390600052602060002090600202016000909190919091506000820151816000019080519060200190610e54929190611142565b506020820151816001019080519060200190610e71929190611142565b5050505050565b600060055442118015610e8c575060065442105b610ecb576040517f08c379a0000000000000000000000000000000000000000000000000000000008152600401610ec290611905565b60405180910390fd5b610ed43361103c565b610f13576040517f08c379a0000000000000000000000000000000000000000000000000000000008152600401610f0a906118e5565b60405180910390fd5b81600a60003373ffffffffffffffffffffffffffffffffffffffff1673ffffffffffffffffffffffffffffffffffffffff1681526020019081526020016000206001019080519060200190610f69929190611142565b50610f733361052b565b61103357600b339080600181540180825580915050600190039060005260206000200160009091909190916101000a81548173ffffffffffffffffffffffffffffffffffffffff021916908373ffffffffffffffffffffffffffffffffffffffff1602179055506001600b80549050610fec9190611aba565b600a60003373ffffffffffffffffffffffffffffffffffffffff1673ffffffffffffffffffffffffffffffffffffffff168152602001908152602001600020600001819055505b60019050919050565b600080600260009054906101000a900473ffffffffffffffffffffffffffffffffffffffff1690508073ffffffffffffffffffffffffffffffffffffffff1663a7771ee3846040518263ffffffff1660e01b815260040161109d91906117b0565b60206040518083038186803b1580156110b557600080fd5b505afa1580156110c9573d6000803e3d6000fd5b505050506040513d601f19601f820116820180604052508101906110ed919061138c565b915050919050565b828054828255906000526020600020908101928215611131579160200282015b82811115611130578251825591602001919060010190611115565b5b50905061113e91906111c8565b5090565b82805461114e90611b78565b90600052602060002090601f01602090048101928261117057600085556111b7565b82601f1061118957805160ff19168380011785556111b7565b828001600101855582156111b7579182015b828111156111b657825182559160200191906001019061119b565b5b5090506111c491906111c8565b5090565b5b808211156111e15760008160009055506001016111c9565b5090565b60006111f86111f384611985565b611960565b9050808382526020820190508285602086028201111561121757600080fd5b60005b85811015611247578161122d888261130d565b84526020840193506020830192505060018101905061121a565b5050509392505050565b600061126461125f846119b1565b611960565b90508281526020810184848401111561127c57600080fd5b611287848285611b36565b509392505050565b60008135905061129e81611d46565b92915050565b600082601f8301126112b557600080fd5b81356112c58482602086016111e5565b91505092915050565b6000815190506112dd81611d5d565b92915050565b600082601f8301126112f457600080fd5b8135611304848260208601611251565b91505092915050565b60008135905061131c81611d74565b92915050565b60006020828403121561133457600080fd5b60006113428482850161128f565b91505092915050565b60006020828403121561135d57600080fd5b600082013567ffffffffffffffff81111561137757600080fd5b611383848285016112a4565b91505092915050565b60006020828403121561139e57600080fd5b60006113ac848285016112ce565b91505092915050565b6000602082840312156113c757600080fd5b600082013567ffffffffffffffff8111156113e157600080fd5b6113ed848285016112e3565b91505092915050565b6000806040838503121561140957600080fd5b600083013567ffffffffffffffff81111561142357600080fd5b61142f858286016112e3565b925050602083013567ffffffffffffffff81111561144c57600080fd5b611458858286016112e3565b9150509250929050565b60006020828403121561147457600080fd5b60006114828482850161130d565b91505092915050565b600061149783836114cf565b60208301905092915050565b60006114af838361174e565b905092915050565b60006114c38383611792565b60208301905092915050565b6114d881611aee565b82525050565b6114e781611aee565b82525050565b60006114f882611a12565b6115028185611a65565b935061150d836119e2565b8060005b8381101561153e578151611525888261148b565b975061153083611a3e565b925050600181019050611511565b5085935050505092915050565b600061155682611a1d565b6115608185611a76565b935083602082028501611572856119f2565b8060005b858110156115ae578484038952815161158f85826114a3565b945061159a83611a4b565b925060208a01995050600181019050611576565b50829750879550505050505092915050565b60006115cb82611a28565b6115d58185611a87565b93506115e083611a02565b8060005b838110156116115781516115f888826114b7565b975061160383611a58565b9250506001810190506115e4565b5085935050505092915050565b61162781611b00565b82525050565b600061163882611a33565b6116428185611a98565b9350611652818560208601611b45565b61165b81611c68565b840191505092915050565b600061167182611a33565b61167b8185611aa9565b935061168b818560208601611b45565b61169481611c68565b840191505092915050565b60006116ac601183611aa9565b91506116b782611c79565b602082019050919050565b60006116cf601283611aa9565b91506116da82611ca2565b602082019050919050565b60006116f2600d83611aa9565b91506116fd82611ccb565b602082019050919050565b6000611715601283611aa9565b915061172082611cf4565b602082019050919050565b6000611738601183611aa9565b915061174382611d1d565b602082019050919050565b6000604083016000830151848203600086015261176b828261162d565b91505060208301518482036020860152611785828261162d565b9150508091505092915050565b61179b81611b2c565b82525050565b6117aa81611b2c565b82525050565b60006020820190506117c560008301846114de565b92915050565b600060208201905081810360008301526117e581846114ed565b905092915050565b60006020820190508181036000830152611807818461154b565b905092915050565b6000602082019050818103600083015261182981846115c0565b905092915050565b6000602082019050611846600083018461161e565b92915050565b600060208201905081810360008301526118668184611666565b905092915050565b600060408201905081810360008301526118888185611666565b9050818103602083015261189c8184611666565b90509392505050565b600060208201905081810360008301526118be8161169f565b9050919050565b600060208201905081810360008301526118de816116c2565b9050919050565b600060208201905081810360008301526118fe816116e5565b9050919050565b6000602082019050818103600083015261191e81611708565b9050919050565b6000602082019050818103600083015261193e8161172b565b9050919050565b600060208201905061195a60008301846117a1565b92915050565b600061196a61197b565b90506119768282611baa565b919050565b6000604051905090565b600067ffffffffffffffff8211156119a05761199f611c39565b5b602082029050602081019050919050565b600067ffffffffffffffff8211156119cc576119cb611c39565b5b6119d582611c68565b9050602081019050919050565b6000819050602082019050919050565b6000819050602082019050919050565b6000819050602082019050919050565b600081519050919050565b600081519050919050565b600081519050919050565b600081519050919050565b6000602082019050919050565b6000602082019050919050565b6000602082019050919050565b600082825260208201905092915050565b600082825260208201905092915050565b600082825260208201905092915050565b600082825260208201905092915050565b600082825260208201905092915050565b6000611ac582611b2c565b9150611ad083611b2c565b925082821015611ae357611ae2611bdb565b5b828203905092915050565b6000611af982611b0c565b9050919050565b60008115159050919050565b600073ffffffffffffffffffffffffffffffffffffffff82169050919050565b6000819050919050565b82818337600083830152505050565b60005b83811015611b63578082015181840152602081019050611b48565b83811115611b72576000848401525b50505050565b60006002820490506001821680611b9057607f821691505b60208210811415611ba457611ba3611c0a565b5b50919050565b611bb382611c68565b810181811067ffffffffffffffff82111715611bd257611bd1611c39565b5b80604052505050565b7f4e487b7100000000000000000000000000000000000000000000000000000000600052601160045260246000fd5b7f4e487b7100000000000000000000000000000000000000000000000000000000600052602260045260246000fd5b7f4e487b7100000000000000000000000000000000000000000000000000000000600052604160045260246000fd5b6000601f19601f8301169050919050565b7f4f6e6c7920616674657220766f74696e67000000000000000000000000000000600082015250565b7f4f6e6c79206265666f726520766f74696e670000000000000000000000000000600082015250565b7f4e6f742052656769737465726400000000000000000000000000000000000000600082015250565b7f4f6e6c7920647572696e6720766f74696e670000000000000000000000000000600082015250565b7f4f6e6c792061646d696e69737461746f72000000000000000000000000000000600082015250565b611d4f81611aee565b8114611d5a57600080fd5b50565b611d6681611b00565b8114611d7157600080fd5b50565b611d7d81611b2c565b8114611d8857600080fd5b5056fea26469706673582212208153a1addbc0bc5c54e2fa1675f7ecf984cee5122a3b60f69c773d042ce71a7764736f6c63430008040033a264697066735822122037f07ffd1b84bd4f7d54d7468ffb800865d3f5e437112d2c27de5ab7c2934a3564736f6c63430008040033",
  "immutableReferences": {},
  "source": "pragma solidity ^0.8.4;\r\n\r\n\r\nimport \"./Voting.sol\";\r\n\r\ncontract BaseofVotings {\r\n    address public manager;\r\n    address public registration2;\r\n    address[] public createdVotings;\r\n\r\n    ///       \r\n    constructor(address _registration2) {\r\n        manager = msg.sender;\r\n        registration2 = _registration2;\r\n    }\r\n\r\n    //       \r\n    modifier onlyadm() {\r\n        require(msg.sender == manager, \"Only admin\");\r\n        _;\r\n    }\r\n\r\n    //   \r\n    function createVoting(string memory _title,string memory _description,uint _time_start,uint _endTime,string memory _encryptionKey)\r\n        public onlyadm {\r\n        createdVotings.push(\r\n            address(new Voting(manager,registration2,_title,_description,_time_start,_endTime,_encryptionKey))\r\n        );\r\n    }\r\n\r\n    //      \r\n    function allCreatedVotings() public view returns(address[] memory) {\r\n        return createdVotings;\r\n    }\r\n}",
  "sourcePath": "C:/Users/1/Desktop/ethereum-voting/src/contracts/BaseofVotings.sol",
  "compiler": {
    "name": "solc",
    "version": "0.8.4+commit.c7e474f2.Emscripten.clang"
  },
  "schemaVersion": "3.3.4",
  "updatedAt": "2021-06-12T07:10:24.578Z",
  "networkType": "ethereum",
  "devdoc": {
    "kind": "dev",
    "methods": {},
    "version": 1
  },
  "userdoc": {
    "kind": "user",
    "methods": {
      "constructor": {
        "notice": "      "
      }
    },
    "version": 1
  }
}