{
  "contractName": "registration",
  "abi": [
    {
      "inputs": [],
      "stateMutability": "nonpayable",
      "type": "constructor"
    },
    {
      "inputs": [],
      "name": "manager",
      "outputs": [
        {
          "internalType": "address",
          "name": "",
          "type": "address"
        }
      ],
      "stateMutability": "view",
      "type": "function",
      "constant": true
    },
    {
      "inputs": [
        {
          "internalType": "address",
          "name": "_voter",
          "type": "address"
        },
        {
          "internalType": "string",
          "name": "_name",
          "type": "string"
        },
        {
          "internalType": "string",
          "name": "_strAddr",
          "type": "string"
        },
        {
          "internalType": "string",
          "name": "_birth",
          "type": "string"
        },
        {
          "internalType": "string",
          "name": "_id",
          "type": "string"
        }
      ],
      "name": "registerUpdate",
      "outputs": [],
      "stateMutability": "nonpayable",
      "type": "function"
    },
    {
      "inputs": [
        {
          "internalType": "address",
          "name": "_voter",
          "type": "address"
        }
      ],
      "name": "deleteVoter",
      "outputs": [],
      "stateMutability": "nonpayable",
      "type": "function"
    },
    {
      "inputs": [
        {
          "internalType": "address",
          "name": "_voter",
          "type": "address"
        }
      ],
      "name": "isVoter",
      "outputs": [
        {
          "internalType": "bool",
          "name": "",
          "type": "bool"
        }
      ],
      "stateMutability": "view",
      "type": "function",
      "constant": true
    },
    {
      "inputs": [],
      "name": "numberVoters",
      "outputs": [
        {
          "internalType": "uint256",
          "name": "",
          "type": "uint256"
        }
      ],
      "stateMutability": "view",
      "type": "function",
      "constant": true
    },
    {
      "inputs": [],
      "name": "listVoters",
      "outputs": [
        {
          "internalType": "address[]",
          "name": "",
          "type": "address[]"
        }
      ],
      "stateMutability": "view",
      "type": "function",
      "constant": true
    },
    {
      "inputs": [
        {
          "internalType": "address",
          "name": "_voter",
          "type": "address"
        }
      ],
      "name": "infoVoter",
      "outputs": [
        {
          "components": [
            {
              "internalType": "bool",
              "name": "isVoter",
              "type": "bool"
            },
            {
              "internalType": "address",
              "name": "addr",
              "type": "address"
            },
            {
              "internalType": "uint256",
              "name": "index",
              "type": "uint256"
            },
            {
              "internalType": "string",
              "name": "name",
              "type": "string"
            },
            {
              "internalType": "string",
              "name": "strAddr",
              "type": "string"
            },
            {
              "internalType": "string",
              "name": "birth",
              "type": "string"
            },
            {
              "internalType": "string",
              "name": "id",
              "type": "string"
            }
          ],
          "internalType": "struct registration.Voter",
          "name": "",
          "type": "tuple"
        }
      ],
      "stateMutability": "view",
      "type": "function",
      "constant": true
    }
  ],
  "bytecode": "0x608060405234801561001057600080fd5b50336000806101000a81548173ffffffffffffffffffffffffffffffffffffffff021916908373ffffffffffffffffffffffffffffffffffffffff160217905550611583806100606000396000f3fe608060405234801561001057600080fd5b506004361061007d5760003560e01c806388e1c7391161005b57806388e1c739146100ee57806396dfa63f1461010a578063a7771ee314610128578063d95410e9146101585761007d565b8063481c6a751461008257806352118db2146100a057806386548d2c146100d0575b600080fd5b61008a610174565b6040516100979190611194565b60405180910390f35b6100ba60048036038101906100b59190610e94565b610198565b6040516100c7919061122c565b60405180910390f35b6100d86104b4565b6040516100e5919061124e565b60405180910390f35b61010860048036038101906101039190610e94565b6104c1565b005b61011261083d565b60405161011f91906111af565b60405180910390f35b610142600480360381019061013d9190610e94565b6108cb565b60405161014f91906111d1565b60405180910390f35b610172600480360381019061016d9190610ebd565b61093b565b005b60008054906101000a900473ffffffffffffffffffffffffffffffffffffffff1681565b6101a0610d1f565b600160008373ffffffffffffffffffffffffffffffffffffffff1673ffffffffffffffffffffffffffffffffffffffff1681526020019081526020016000206040518060e00160405290816000820160009054906101000a900460ff161515151581526020016000820160019054906101000a900473ffffffffffffffffffffffffffffffffffffffff1673ffffffffffffffffffffffffffffffffffffffff1673ffffffffffffffffffffffffffffffffffffffff16815260200160018201548152602001600282018054610275906113e3565b80601f01602080910402602001604051908101604052809291908181526020018280546102a1906113e3565b80156102ee5780601f106102c3576101008083540402835291602001916102ee565b820191906000526020600020905b8154815290600101906020018083116102d157829003601f168201915b50505050508152602001600382018054610307906113e3565b80601f0160208091040260200160405190810160405280929190818152602001828054610333906113e3565b80156103805780601f1061035557610100808354040283529160200191610380565b820191906000526020600020905b81548152906001019060200180831161036357829003601f168201915b50505050508152602001600482018054610399906113e3565b80601f01602080910402602001604051908101604052809291908181526020018280546103c5906113e3565b80156104125780601f106103e757610100808354040283529160200191610412565b820191906000526020600020905b8154815290600101906020018083116103f557829003601f168201915b5050505050815260200160058201805461042b906113e3565b80601f0160208091040260200160405190810160405280929190818152602001828054610457906113e3565b80156104a45780601f10610479576101008083540402835291602001916104a4565b820191906000526020600020905b81548152906001019060200180831161048757829003601f168201915b5050505050815250509050919050565b6000600280549050905090565b60008054906101000a900473ffffffffffffffffffffffffffffffffffffffff1673ffffffffffffffffffffffffffffffffffffffff163373ffffffffffffffffffffffffffffffffffffffff161461054f576040517f08c379a00000000000000000000000000000000000000000000000000000000081526004016105469061120c565b60405180910390fd5b60011515600160008373ffffffffffffffffffffffffffffffffffffffff1673ffffffffffffffffffffffffffffffffffffffff16815260200190815260200160002060000160009054906101000a900460ff161515146105e5576040517f08c379a00000000000000000000000000000000000000000000000000000000081526004016105dc906111ec565b60405180910390fd5b6000600160008373ffffffffffffffffffffffffffffffffffffffff1673ffffffffffffffffffffffffffffffffffffffff16815260200190815260200160002060000160006101000a81548160ff0219169083151502179055506000600160008373ffffffffffffffffffffffffffffffffffffffff1673ffffffffffffffffffffffffffffffffffffffff16815260200190815260200160002060010154905060006002600160028054905061069d9190611325565b815481106106d4577f4e487b7100000000000000000000000000000000000000000000000000000000600052603260045260246000fd5b9060005260206000200160009054906101000a900473ffffffffffffffffffffffffffffffffffffffff169050806002838154811061073c577f4e487b7100000000000000000000000000000000000000000000000000000000600052603260045260246000fd5b9060005260206000200160006101000a81548173ffffffffffffffffffffffffffffffffffffffff021916908373ffffffffffffffffffffffffffffffffffffffff16021790555081600160008373ffffffffffffffffffffffffffffffffffffffff1673ffffffffffffffffffffffffffffffffffffffff168152602001908152602001600020600101819055506002805480610803577f4e487b7100000000000000000000000000000000000000000000000000000000600052603160045260246000fd5b6001900381819060005260206000200160006101000a81549073ffffffffffffffffffffffffffffffffffffffff02191690559055505050565b606060028054806020026020016040519081016040528092919081815260200182805480156108c157602002820191906000526020600020905b8160009054906101000a900473ffffffffffffffffffffffffffffffffffffffff1673ffffffffffffffffffffffffffffffffffffffff1681526020019060010190808311610877575b5050505050905090565b60008060028054905014156108e35760009050610936565b600160008373ffffffffffffffffffffffffffffffffffffffff1673ffffffffffffffffffffffffffffffffffffffff16815260200190815260200160002060000160009054906101000a900460ff1690505b919050565b60008054906101000a900473ffffffffffffffffffffffffffffffffffffffff1673ffffffffffffffffffffffffffffffffffffffff163373ffffffffffffffffffffffffffffffffffffffff16146109c9576040517f08c379a00000000000000000000000000000000000000000000000000000000081526004016109c09061120c565b60405180910390fd5b60001515600160008773ffffffffffffffffffffffffffffffffffffffff1673ffffffffffffffffffffffffffffffffffffffff16815260200190815260200160002060000160009054906101000a900460ff1615151415610bbc576002859080600181540180825580915050600190039060005260206000200160009091909190916101000a81548173ffffffffffffffffffffffffffffffffffffffff021916908373ffffffffffffffffffffffffffffffffffffffff1602179055506001600280549050610a9a9190611325565b600160008773ffffffffffffffffffffffffffffffffffffffff1673ffffffffffffffffffffffffffffffffffffffff1681526020019081526020016000206001018190555060018060008773ffffffffffffffffffffffffffffffffffffffff1673ffffffffffffffffffffffffffffffffffffffff16815260200190815260200160002060000160006101000a81548160ff02191690831515021790555084600160008773ffffffffffffffffffffffffffffffffffffffff1673ffffffffffffffffffffffffffffffffffffffff16815260200190815260200160002060000160016101000a81548173ffffffffffffffffffffffffffffffffffffffff021916908373ffffffffffffffffffffffffffffffffffffffff1602179055505b83600160008773ffffffffffffffffffffffffffffffffffffffff1673ffffffffffffffffffffffffffffffffffffffff1681526020019081526020016000206002019080519060200190610c12929190610d74565b5082600160008773ffffffffffffffffffffffffffffffffffffffff1673ffffffffffffffffffffffffffffffffffffffff1681526020019081526020016000206003019080519060200190610c69929190610d74565b5081600160008773ffffffffffffffffffffffffffffffffffffffff1673ffffffffffffffffffffffffffffffffffffffff1681526020019081526020016000206004019080519060200190610cc0929190610d74565b5080600160008773ffffffffffffffffffffffffffffffffffffffff1673ffffffffffffffffffffffffffffffffffffffff1681526020019081526020016000206005019080519060200190610d17929190610d74565b505050505050565b6040518060e00160405280600015158152602001600073ffffffffffffffffffffffffffffffffffffffff16815260200160008152602001606081526020016060815260200160608152602001606081525090565b828054610d80906113e3565b90600052602060002090601f016020900481019282610da25760008555610de9565b82601f10610dbb57805160ff1916838001178555610de9565b82800160010185558215610de9579182015b82811115610de8578251825591602001919060010190610dcd565b5b509050610df69190610dfa565b5090565b5b80821115610e13576000816000905550600101610dfb565b5090565b6000610e2a610e258461128e565b611269565b905082815260208101848484011115610e4257600080fd5b610e4d8482856113a1565b509392505050565b600081359050610e6481611536565b92915050565b600082601f830112610e7b57600080fd5b8135610e8b848260208601610e17565b91505092915050565b600060208284031215610ea657600080fd5b6000610eb484828501610e55565b91505092915050565b600080600080600060a08688031215610ed557600080fd5b6000610ee388828901610e55565b955050602086013567ffffffffffffffff811115610f0057600080fd5b610f0c88828901610e6a565b945050604086013567ffffffffffffffff811115610f2957600080fd5b610f3588828901610e6a565b935050606086013567ffffffffffffffff811115610f5257600080fd5b610f5e88828901610e6a565b925050608086013567ffffffffffffffff811115610f7b57600080fd5b610f8788828901610e6a565b9150509295509295909350565b6000610fa08383610fac565b60208301905092915050565b610fb581611359565b82525050565b610fc481611359565b82525050565b6000610fd5826112cf565b610fdf81856112f2565b9350610fea836112bf565b8060005b8381101561101b5781516110028882610f94565b975061100d836112e5565b925050600181019050610fee565b5085935050505092915050565b6110318161136b565b82525050565b6110408161136b565b82525050565b6000611051826112da565b61105b8185611303565b935061106b8185602086016113b0565b611074816114d3565b840191505092915050565b600061108c600e83611314565b9150611097826114e4565b602082019050919050565b60006110af600a83611314565b91506110ba8261150d565b602082019050919050565b600060e0830160008301516110dd6000860182611028565b5060208301516110f06020860182610fac565b5060408301516111036040860182611176565b506060830151848203606086015261111b8282611046565b915050608083015184820360808601526111358282611046565b91505060a083015184820360a086015261114f8282611046565b91505060c083015184820360c08601526111698282611046565b9150508091505092915050565b61117f81611397565b82525050565b61118e81611397565b82525050565b60006020820190506111a96000830184610fbb565b92915050565b600060208201905081810360008301526111c98184610fca565b905092915050565b60006020820190506111e66000830184611037565b92915050565b600060208201905081810360008301526112058161107f565b9050919050565b60006020820190508181036000830152611225816110a2565b9050919050565b6000602082019050818103600083015261124681846110c5565b905092915050565b60006020820190506112636000830184611185565b92915050565b6000611273611284565b905061127f8282611415565b919050565b6000604051905090565b600067ffffffffffffffff8211156112a9576112a86114a4565b5b6112b2826114d3565b9050602081019050919050565b6000819050602082019050919050565b600081519050919050565b600081519050919050565b6000602082019050919050565b600082825260208201905092915050565b600082825260208201905092915050565b600082825260208201905092915050565b600061133082611397565b915061133b83611397565b92508282101561134e5761134d611446565b5b828203905092915050565b600061136482611377565b9050919050565b60008115159050919050565b600073ffffffffffffffffffffffffffffffffffffffff82169050919050565b6000819050919050565b82818337600083830152505050565b60005b838110156113ce5780820151818401526020810190506113b3565b838111156113dd576000848401525b50505050565b600060028204905060018216806113fb57607f821691505b6020821081141561140f5761140e611475565b5b50919050565b61141e826114d3565b810181811067ffffffffffffffff8211171561143d5761143c6114a4565b5b80604052505050565b7f4e487b7100000000000000000000000000000000000000000000000000000000600052601160045260246000fd5b7f4e487b7100000000000000000000000000000000000000000000000000000000600052602260045260246000fd5b7f4e487b7100000000000000000000000000000000000000000000000000000000600052604160045260246000fd5b6000601f19601f8301169050919050565b7f4e6f742072656769737465726564000000000000000000000000000000000000600082015250565b7f4f6e6c792061646d696e00000000000000000000000000000000000000000000600082015250565b61153f81611359565b811461154a57600080fd5b5056fea26469706673582212201439d6658aeb3d38e6376415fa334ce0999aa230056dbd96db816c6cd3301f5364736f6c63430008040033",
  "immutableReferences": {},
  "source": "\r\npragma solidity ^0.8.4;\r\n\r\n\r\n\r\ncontract registration {\r\n    struct Voter {\r\n        bool isVoter;\r\n        address addr;\r\n        uint index;\r\n        string name;\r\n        string strAddr;\r\n        string birth;    \r\n        string id;\r\n    }\r\n\r\n    address public manager;\r\n\r\n    mapping(address => Voter) private voters;//   \r\n    address[] private addrVoters;//  \r\n\r\n    //      \r\n    constructor() {\r\n        manager = msg.sender;\r\n    }\r\n\r\n    \r\n    //,     ,    \r\n    modifier onlyManager() {\r\n        require(msg.sender == manager, \"Only admin\");\r\n        _;\r\n    }\r\n\r\n    //         \r\n    function registerUpdate(\r\n        address _voter,\r\n        string memory _name,\r\n        string memory _strAddr,\r\n        string memory _birth,\r\n        string memory _id) external onlyManager {\r\n\r\n        if (voters[_voter].isVoter == false) {\r\n            addrVoters.push(_voter);\r\n            voters[_voter].index = (addrVoters).length - 1;\r\n            voters[_voter].isVoter = true;\r\n            voters[_voter].addr = _voter;\r\n        }\r\n\r\n        voters[_voter].name = _name;\r\n        voters[_voter].strAddr = _strAddr;\r\n        voters[_voter].birth = _birth;\r\n        voters[_voter].id =_id;\r\n    }\r\n\r\n    // \r\n    function deleteVoter(address _voter) external onlyManager {\r\n        require(voters[_voter].isVoter == true, \"Not registered\");\r\n\r\n        voters[_voter].isVoter = false;\r\n        uint a = voters[_voter].index;\r\n        address b = addrVoters[addrVoters.length - 1];\r\n        addrVoters[a] = b;\r\n        voters[b].index = a;\r\n        addrVoters.pop();\r\n    }\r\n\r\n    //      \r\n    function isVoter(address _voter) public view returns(bool) {\r\n        if (addrVoters.length == 0) return false;\r\n        return (voters[_voter].isVoter);\r\n    }\r\n\r\n    //  \r\n    function numberVoters() public view returns(uint) {\r\n        return addrVoters.length;\r\n    }\r\n\r\n    //  \r\n    function listVoters() public view returns(address[] memory) {\r\n        return addrVoters;\r\n    }\r\n\r\n    //    \r\n    function infoVoter(address _voter) public view returns( Voter memory) {\r\n        return voters[_voter];\r\n    }\r\n}",
  "sourcePath": "C:/Users/1/Desktop/ethereum-voting/src/contracts/registration.sol",
  "compiler": {
    "name": "solc",
    "version": "0.8.4+commit.c7e474f2.Emscripten.clang"
  },
  "schemaVersion": "3.3.4",
  "updatedAt": "2021-06-12T07:10:24.618Z",
  "networkType": "ethereum",
  "devdoc": {
    "kind": "dev",
    "methods": {},
    "version": 1
  },
  "userdoc": {
    "kind": "user",
    "methods": {},
    "version": 1
  }
}