{
  "contractName": "registration",
  "abi": [
    {
      "inputs": [],
      "stateMutability": "nonpayable",
      "type": "constructor"
    },
    {
      "inputs": [],
      "name": "admin",
      "outputs": [
        {
          "internalType": "address",
          "name": "",
          "type": "address"
        }
      ],
      "stateMutability": "view",
      "type": "function",
      "constant": true
    },
    {
      "inputs": [
        {
          "internalType": "address",
          "name": "_voter",
          "type": "address"
        },
        {
          "internalType": "string",
          "name": "_pasport",
          "type": "string"
        },
        {
          "internalType": "string",
          "name": "_name",
          "type": "string"
        },
        {
          "internalType": "string",
          "name": "_strAddr",
          "type": "string"
        },
        {
          "internalType": "string",
          "name": "_birth",
          "type": "string"
        }
      ],
      "name": "register_update",
      "outputs": [],
      "stateMutability": "nonpayable",
      "type": "function"
    },
    {
      "inputs": [
        {
          "internalType": "address",
          "name": "_voter",
          "type": "address"
        }
      ],
      "name": "delete_voter",
      "outputs": [],
      "stateMutability": "nonpayable",
      "type": "function"
    },
    {
      "inputs": [],
      "name": "list_of_registered",
      "outputs": [
        {
          "internalType": "address[]",
          "name": "",
          "type": "address[]"
        }
      ],
      "stateMutability": "view",
      "type": "function",
      "constant": true
    },
    {
      "inputs": [
        {
          "internalType": "address",
          "name": "_voter",
          "type": "address"
        }
      ],
      "name": "info_of_registered",
      "outputs": [
        {
          "components": [
            {
              "internalType": "bool",
              "name": "registered_voter",
              "type": "bool"
            },
            {
              "internalType": "address",
              "name": "addr",
              "type": "address"
            },
            {
              "internalType": "uint256",
              "name": "index",
              "type": "uint256"
            },
            {
              "internalType": "string",
              "name": "name",
              "type": "string"
            },
            {
              "internalType": "string",
              "name": "strAddr",
              "type": "string"
            },
            {
              "internalType": "string",
              "name": "birth",
              "type": "string"
            },
            {
              "internalType": "string",
              "name": "pasport",
              "type": "string"
            }
          ],
          "internalType": "struct registration.Voter",
          "name": "",
          "type": "tuple"
        }
      ],
      "stateMutability": "view",
      "type": "function",
      "constant": true
    },
    {
      "inputs": [
        {
          "internalType": "address",
          "name": "_voter",
          "type": "address"
        }
      ],
      "name": "registered_voter",
      "outputs": [
        {
          "internalType": "bool",
          "name": "",
          "type": "bool"
        }
      ],
      "stateMutability": "view",
      "type": "function",
      "constant": true
    }
  ],
  "bytecode": "0x608060405234801561001057600080fd5b50336000806101000a81548173ffffffffffffffffffffffffffffffffffffffff021916908373ffffffffffffffffffffffffffffffffffffffff160217905550611511806100606000396000f3fe608060405234801561001057600080fd5b50600436106100625760003560e01c8063497f182b14610067578063625ee6d514610097578063c46bf7b1146100c7578063c60d104b146100e3578063c789dbc814610101578063f851a4401461011d575b600080fd5b610081600480360381019061007c9190610e4c565b61013b565b60405161008e91906111d5565b60405180910390f35b6100b160048036038101906100ac9190610e4c565b610457565b6040516100be919061117a565b60405180910390f35b6100e160048036038101906100dc9190610e75565b6104c7565b005b6100eb6108ab565b6040516100f89190611158565b60405180910390f35b61011b60048036038101906101169190610e4c565b610939565b005b610125610cb3565b604051610132919061113d565b60405180910390f35b610143610cd7565b600260008373ffffffffffffffffffffffffffffffffffffffff1673ffffffffffffffffffffffffffffffffffffffff1681526020019081526020016000206040518060e00160405290816000820160009054906101000a900460ff161515151581526020016000820160019054906101000a900473ffffffffffffffffffffffffffffffffffffffff1673ffffffffffffffffffffffffffffffffffffffff1673ffffffffffffffffffffffffffffffffffffffff1681526020016001820154815260200160028201805461021890611371565b80601f016020809104026020016040519081016040528092919081815260200182805461024490611371565b80156102915780601f1061026657610100808354040283529160200191610291565b820191906000526020600020905b81548152906001019060200180831161027457829003601f168201915b505050505081526020016003820180546102aa90611371565b80601f01602080910402602001604051908101604052809291908181526020018280546102d690611371565b80156103235780601f106102f857610100808354040283529160200191610323565b820191906000526020600020905b81548152906001019060200180831161030657829003601f168201915b5050505050815260200160048201805461033c90611371565b80601f016020809104026020016040519081016040528092919081815260200182805461036890611371565b80156103b55780601f1061038a576101008083540402835291602001916103b5565b820191906000526020600020905b81548152906001019060200180831161039857829003601f168201915b505050505081526020016005820180546103ce90611371565b80601f01602080910402602001604051908101604052809291908181526020018280546103fa90611371565b80156104475780601f1061041c57610100808354040283529160200191610447565b820191906000526020600020905b81548152906001019060200180831161042a57829003601f168201915b5050505050815250509050919050565b600080600180549050141561046f57600090506104c2565b600260008373ffffffffffffffffffffffffffffffffffffffff1673ffffffffffffffffffffffffffffffffffffffff16815260200190815260200160002060000160009054906101000a900460ff1690505b919050565b60008054906101000a900473ffffffffffffffffffffffffffffffffffffffff1673ffffffffffffffffffffffffffffffffffffffff163373ffffffffffffffffffffffffffffffffffffffff1614610555576040517f08c379a000000000000000000000000000000000000000000000000000000000815260040161054c906111b5565b60405180910390fd5b60001515600260008773ffffffffffffffffffffffffffffffffffffffff1673ffffffffffffffffffffffffffffffffffffffff16815260200190815260200160002060000160009054906101000a900460ff1615151415610748576001859080600181540180825580915050600190039060005260206000200160009091909190916101000a81548173ffffffffffffffffffffffffffffffffffffffff021916908373ffffffffffffffffffffffffffffffffffffffff16021790555084600260008773ffffffffffffffffffffffffffffffffffffffff1673ffffffffffffffffffffffffffffffffffffffff16815260200190815260200160002060000160016101000a81548173ffffffffffffffffffffffffffffffffffffffff021916908373ffffffffffffffffffffffffffffffffffffffff160217905550600180805490506106a691906112b3565b600260008773ffffffffffffffffffffffffffffffffffffffff1673ffffffffffffffffffffffffffffffffffffffff168152602001908152602001600020600101819055506001600260008773ffffffffffffffffffffffffffffffffffffffff1673ffffffffffffffffffffffffffffffffffffffff16815260200190815260200160002060000160006101000a81548160ff0219169083151502179055505b83600260008773ffffffffffffffffffffffffffffffffffffffff1673ffffffffffffffffffffffffffffffffffffffff168152602001908152602001600020600501908051906020019061079e929190610d2c565b5082600260008773ffffffffffffffffffffffffffffffffffffffff1673ffffffffffffffffffffffffffffffffffffffff16815260200190815260200160002060020190805190602001906107f5929190610d2c565b5081600260008773ffffffffffffffffffffffffffffffffffffffff1673ffffffffffffffffffffffffffffffffffffffff168152602001908152602001600020600301908051906020019061084c929190610d2c565b5080600260008773ffffffffffffffffffffffffffffffffffffffff1673ffffffffffffffffffffffffffffffffffffffff16815260200190815260200160002060040190805190602001906108a3929190610d2c565b505050505050565b6060600180548060200260200160405190810160405280929190818152602001828054801561092f57602002820191906000526020600020905b8160009054906101000a900473ffffffffffffffffffffffffffffffffffffffff1673ffffffffffffffffffffffffffffffffffffffff16815260200190600101908083116108e5575b5050505050905090565b60008054906101000a900473ffffffffffffffffffffffffffffffffffffffff1673ffffffffffffffffffffffffffffffffffffffff163373ffffffffffffffffffffffffffffffffffffffff16146109c7576040517f08c379a00000000000000000000000000000000000000000000000000000000081526004016109be906111b5565b60405180910390fd5b60011515600260008373ffffffffffffffffffffffffffffffffffffffff1673ffffffffffffffffffffffffffffffffffffffff16815260200190815260200160002060000160009054906101000a900460ff16151514610a5d576040517f08c379a0000000000000000000000000000000000000000000000000000000008152600401610a5490611195565b60405180910390fd5b6000600260008373ffffffffffffffffffffffffffffffffffffffff1673ffffffffffffffffffffffffffffffffffffffff16815260200190815260200160002060000160006101000a81548160ff0219169083151502179055506000600260008373ffffffffffffffffffffffffffffffffffffffff1673ffffffffffffffffffffffffffffffffffffffff16815260200190815260200160002060010154905060006001808080549050610b1391906112b3565b81548110610b4a577f4e487b7100000000000000000000000000000000000000000000000000000000600052603260045260246000fd5b9060005260206000200160009054906101000a900473ffffffffffffffffffffffffffffffffffffffff1690508060018381548110610bb2577f4e487b7100000000000000000000000000000000000000000000000000000000600052603260045260246000fd5b9060005260206000200160006101000a81548173ffffffffffffffffffffffffffffffffffffffff021916908373ffffffffffffffffffffffffffffffffffffffff16021790555081600260008373ffffffffffffffffffffffffffffffffffffffff1673ffffffffffffffffffffffffffffffffffffffff168152602001908152602001600020600101819055506001805480610c79577f4e487b7100000000000000000000000000000000000000000000000000000000600052603160045260246000fd5b6001900381819060005260206000200160006101000a81549073ffffffffffffffffffffffffffffffffffffffff02191690559055505050565b60008054906101000a900473ffffffffffffffffffffffffffffffffffffffff1681565b6040518060e00160405280600015158152602001600073ffffffffffffffffffffffffffffffffffffffff16815260200160008152602001606081526020016060815260200160608152602001606081525090565b828054610d3890611371565b90600052602060002090601f016020900481019282610d5a5760008555610da1565b82601f10610d7357805160ff1916838001178555610da1565b82800160010185558215610da1579182015b82811115610da0578251825591602001919060010190610d85565b5b509050610dae9190610db2565b5090565b5b80821115610dcb576000816000905550600101610db3565b5090565b6000610de2610ddd8461121c565b6111f7565b905082815260208101848484011115610dfa57600080fd5b610e0584828561132f565b509392505050565b600081359050610e1c816114c4565b92915050565b600082601f830112610e3357600080fd5b8135610e43848260208601610dcf565b91505092915050565b600060208284031215610e5e57600080fd5b6000610e6c84828501610e0d565b91505092915050565b600080600080600060a08688031215610e8d57600080fd5b6000610e9b88828901610e0d565b955050602086013567ffffffffffffffff811115610eb857600080fd5b610ec488828901610e22565b945050604086013567ffffffffffffffff811115610ee157600080fd5b610eed88828901610e22565b935050606086013567ffffffffffffffff811115610f0a57600080fd5b610f1688828901610e22565b925050608086013567ffffffffffffffff811115610f3357600080fd5b610f3f88828901610e22565b9150509295509295909350565b6000610f588383610f64565b60208301905092915050565b610f6d816112e7565b82525050565b610f7c816112e7565b82525050565b6000610f8d8261125d565b610f978185611280565b9350610fa28361124d565b8060005b83811015610fd3578151610fba8882610f4c565b9750610fc583611273565b925050600181019050610fa6565b5085935050505092915050565b610fe9816112f9565b82525050565b610ff8816112f9565b82525050565b600061100982611268565b6110138185611291565b935061102381856020860161133e565b61102c81611461565b840191505092915050565b6000611044600e836112a2565b915061104f82611472565b602082019050919050565b6000611067600a836112a2565b91506110728261149b565b602082019050919050565b600060e0830160008301516110956000860182610fe0565b5060208301516110a86020860182610f64565b5060408301516110bb604086018261112e565b50606083015184820360608601526110d38282610ffe565b915050608083015184820360808601526110ed8282610ffe565b91505060a083015184820360a08601526111078282610ffe565b91505060c083015184820360c08601526111218282610ffe565b9150508091505092915050565b61113781611325565b82525050565b60006020820190506111526000830184610f73565b92915050565b600060208201905081810360008301526111728184610f82565b905092915050565b600060208201905061118f6000830184610fef565b92915050565b600060208201905081810360008301526111ae81611037565b9050919050565b600060208201905081810360008301526111ce8161105a565b9050919050565b600060208201905081810360008301526111ef818461107d565b905092915050565b6000611201611212565b905061120d82826113a3565b919050565b6000604051905090565b600067ffffffffffffffff82111561123757611236611432565b5b61124082611461565b9050602081019050919050565b6000819050602082019050919050565b600081519050919050565b600081519050919050565b6000602082019050919050565b600082825260208201905092915050565b600082825260208201905092915050565b600082825260208201905092915050565b60006112be82611325565b91506112c983611325565b9250828210156112dc576112db6113d4565b5b828203905092915050565b60006112f282611305565b9050919050565b60008115159050919050565b600073ffffffffffffffffffffffffffffffffffffffff82169050919050565b6000819050919050565b82818337600083830152505050565b60005b8381101561135c578082015181840152602081019050611341565b8381111561136b576000848401525b50505050565b6000600282049050600182168061138957607f821691505b6020821081141561139d5761139c611403565b5b50919050565b6113ac82611461565b810181811067ffffffffffffffff821117156113cb576113ca611432565b5b80604052505050565b7f4e487b7100000000000000000000000000000000000000000000000000000000600052601160045260246000fd5b7f4e487b7100000000000000000000000000000000000000000000000000000000600052602260045260246000fd5b7f4e487b7100000000000000000000000000000000000000000000000000000000600052604160045260246000fd5b6000601f19601f8301169050919050565b7f4e6f742072656769737465726564000000000000000000000000000000000000600082015250565b7f4f6e6c792061646d696e00000000000000000000000000000000000000000000600082015250565b6114cd816112e7565b81146114d857600080fd5b5056fea26469706673582212200d88f2f49bb98ff587d7e4f74d8edbe82e76e289647f6dea498cd36a4654d1ea64736f6c63430008040033",
  "immutableReferences": {},
  "source": "\r\npragma solidity ^0.8.4;\r\ncontract registration {\r\n    address public admin;\r\n    struct Voter {\r\n        bool registered_voter;\r\n        address addr;\r\n        uint index;\r\n        string name;\r\n        string strAddr;\r\n        string birth;    \r\n        string pasport;\r\n    }\r\n    address[] private addrVoters;// \r\n    mapping(address => Voter) private voters;//   \r\n    //      \r\n    constructor() {\r\n        admin = msg.sender;\r\n    }\r\n\r\n    //         \r\n    function register_update(address _voter,string memory _pasport,string memory _name,string memory _strAddr,string memory _birth\r\n        ) external {\r\n        require(msg.sender == admin, \"Only admin\");\r\n        if (voters[_voter].registered_voter == false) {\r\n            addrVoters.push(_voter);\r\n            voters[_voter].addr = _voter;\r\n            voters[_voter].index = (addrVoters).length - 1;\r\n            voters[_voter].registered_voter = true;           \r\n        }\r\n        voters[_voter].pasport =_pasport;\r\n        voters[_voter].name = _name;\r\n        voters[_voter].strAddr = _strAddr;\r\n        voters[_voter].birth = _birth;\r\n        \r\n    }\r\n    // \r\n    function delete_voter(address _voter) external  {\r\n        require(msg.sender == admin, \"Only admin\");\r\n        require(voters[_voter].registered_voter == true, \"Not registered\");\r\n        voters[_voter].registered_voter = false;\r\n        uint a = voters[_voter].index;\r\n        address b = addrVoters[addrVoters.length - 1];\r\n        addrVoters[a] = b;\r\n        voters[b].index = a;\r\n        addrVoters.pop();\r\n    }\r\n    // \r\n    function list_of_registered() public view returns(address[] memory) {\r\n    return addrVoters;\r\n    }\r\n    //    \r\n    function info_of_registered(address _voter) public view returns( Voter memory) {\r\n    return voters[_voter];\r\n    }\r\n    //     \r\n    function registered_voter(address _voter) public view returns(bool) {\r\n        if (addrVoters.length == 0) return false;\r\n        return (voters[_voter].registered_voter);\r\n    }\r\n\r\n    \r\n\r\n\r\n    \r\n\r\n}",
  "sourcePath": "C:\\Users\\1\\Desktop\\ethereum-voting\\src\\contracts\\registration.sol",
  "compiler": {
    "name": "solc",
    "version": "0.8.4+commit.c7e474f2.Emscripten.clang"
  },
  "schemaVersion": "3.3.4",
  "updatedAt": "2021-06-14T19:16:05.766Z",
  "networkType": "ethereum",
  "devdoc": {
    "kind": "dev",
    "methods": {},
    "version": 1
  },
  "userdoc": {
    "kind": "user",
    "methods": {},
    "version": 1
  }
}