{
  "contractName": "Voting",
  "abi": [
    {
      "inputs": [
        {
          "internalType": "address",
          "name": "_manager",
          "type": "address"
        },
        {
          "internalType": "address",
          "name": "_registration",
          "type": "address"
        },
        {
          "internalType": "string",
          "name": "_title",
          "type": "string"
        },
        {
          "internalType": "string",
          "name": "_description",
          "type": "string"
        },
        {
          "internalType": "uint256",
          "name": "_time_start",
          "type": "uint256"
        },
        {
          "internalType": "uint256",
          "name": "_endTime",
          "type": "uint256"
        },
        {
          "internalType": "string",
          "name": "_publicKey",
          "type": "string"
        }
      ],
      "stateMutability": "nonpayable",
      "type": "constructor"
    },
    {
      "inputs": [],
      "name": "Registration",
      "outputs": [
        {
          "internalType": "address",
          "name": "",
          "type": "address"
        }
      ],
      "stateMutability": "view",
      "type": "function"
    },
    {
      "inputs": [],
      "name": "base",
      "outputs": [
        {
          "internalType": "address",
          "name": "",
          "type": "address"
        }
      ],
      "stateMutability": "view",
      "type": "function"
    },
    {
      "inputs": [],
      "name": "description",
      "outputs": [
        {
          "internalType": "string",
          "name": "",
          "type": "string"
        }
      ],
      "stateMutability": "view",
      "type": "function"
    },
    {
      "inputs": [],
      "name": "endTime",
      "outputs": [
        {
          "internalType": "uint256",
          "name": "",
          "type": "uint256"
        }
      ],
      "stateMutability": "view",
      "type": "function"
    },
    {
      "inputs": [],
      "name": "manager",
      "outputs": [
        {
          "internalType": "address",
          "name": "",
          "type": "address"
        }
      ],
      "stateMutability": "view",
      "type": "function"
    },
    {
      "inputs": [
        {
          "internalType": "uint256",
          "name": "",
          "type": "uint256"
        }
      ],
      "name": "parametrs",
      "outputs": [
        {
          "internalType": "string",
          "name": "title",
          "type": "string"
        },
        {
          "internalType": "string",
          "name": "description",
          "type": "string"
        }
      ],
      "stateMutability": "view",
      "type": "function"
    },
    {
      "inputs": [],
      "name": "publicKey",
      "outputs": [
        {
          "internalType": "string",
          "name": "",
          "type": "string"
        }
      ],
      "stateMutability": "view",
      "type": "function"
    },
    {
      "inputs": [
        {
          "internalType": "uint256",
          "name": "",
          "type": "uint256"
        }
      ],
      "name": "publishedResult",
      "outputs": [
        {
          "internalType": "uint256",
          "name": "",
          "type": "uint256"
        }
      ],
      "stateMutability": "view",
      "type": "function"
    },
    {
      "inputs": [],
      "name": "time_start",
      "outputs": [
        {
          "internalType": "uint256",
          "name": "",
          "type": "uint256"
        }
      ],
      "stateMutability": "view",
      "type": "function"
    },
    {
      "inputs": [],
      "name": "title",
      "outputs": [
        {
          "internalType": "string",
          "name": "",
          "type": "string"
        }
      ],
      "stateMutability": "view",
      "type": "function"
    },
    {
      "inputs": [
        {
          "internalType": "string",
          "name": "_title",
          "type": "string"
        },
        {
          "internalType": "string",
          "name": "_description",
          "type": "string"
        }
      ],
      "name": "addParam",
      "outputs": [],
      "stateMutability": "nonpayable",
      "type": "function"
    },
    {
      "inputs": [],
      "name": "getParametrs",
      "outputs": [
        {
          "components": [
            {
              "internalType": "string",
              "name": "title",
              "type": "string"
            },
            {
              "internalType": "string",
              "name": "description",
              "type": "string"
            }
          ],
          "internalType": "struct Voting.Param[]",
          "name": "",
          "type": "tuple[]"
        }
      ],
      "stateMutability": "view",
      "type": "function"
    },
    {
      "inputs": [],
      "name": "getListOfVoted",
      "outputs": [
        {
          "internalType": "address[]",
          "name": "votersList",
          "type": "address[]"
        }
      ],
      "stateMutability": "view",
      "type": "function"
    },
    {
      "inputs": [
        {
          "internalType": "address",
          "name": "_address",
          "type": "address"
        }
      ],
      "name": "getEncryptedVots",
      "outputs": [
        {
          "internalType": "string",
          "name": "encryptedVote",
          "type": "string"
        }
      ],
      "stateMutability": "view",
      "type": "function"
    },
    {
      "inputs": [
        {
          "internalType": "uint256[]",
          "name": "results",
          "type": "uint256[]"
        }
      ],
      "name": "publishResults",
      "outputs": [
        {
          "internalType": "bool",
          "name": "success",
          "type": "bool"
        }
      ],
      "stateMutability": "nonpayable",
      "type": "function"
    },
    {
      "inputs": [],
      "name": "getResults",
      "outputs": [
        {
          "internalType": "uint256[]",
          "name": "results",
          "type": "uint256[]"
        }
      ],
      "stateMutability": "view",
      "type": "function"
    },
    {
      "inputs": [
        {
          "internalType": "address",
          "name": "_address",
          "type": "address"
        }
      ],
      "name": "yetVoted",
      "outputs": [
        {
          "internalType": "bool",
          "name": "",
          "type": "bool"
        }
      ],
      "stateMutability": "view",
      "type": "function"
    },
    {
      "inputs": [
        {
          "internalType": "string",
          "name": "_encryptedVote",
          "type": "string"
        }
      ],
      "name": "vote",
      "outputs": [
        {
          "internalType": "bool",
          "name": "success",
          "type": "bool"
        }
      ],
      "stateMutability": "nonpayable",
      "type": "function"
    }
  ],
  "bytecode": "0x60806040523480156200001157600080fd5b506040516200235a3803806200235a8339818101604052810190620000379190620002af565b336000806101000a81548173ffffffffffffffffffffffffffffffffffffffff021916908373ffffffffffffffffffffffffffffffffffffffff16021790555085600260006101000a81548173ffffffffffffffffffffffffffffffffffffffff021916908373ffffffffffffffffffffffffffffffffffffffff16021790555086600160006101000a81548173ffffffffffffffffffffffffffffffffffffffff021916908373ffffffffffffffffffffffffffffffffffffffff1602179055508460039080519060200190620001119291906200015f565b5083600490805190602001906200012a9291906200015f565b5082600581905550816006819055508060089080519060200190620001519291906200015f565b505050505050505062000589565b8280546200016d906200047a565b90600052602060002090601f016020900481019282620001915760008555620001dd565b82601f10620001ac57805160ff1916838001178555620001dd565b82800160010185558215620001dd579182015b82811115620001dc578251825591602001919060010190620001bf565b5b509050620001ec9190620001f0565b5090565b5b808211156200020b576000816000905550600101620001f1565b5090565b6000620002266200022084620003d0565b620003a7565b9050828152602081018484840111156200023f57600080fd5b6200024c84828562000444565b509392505050565b600081519050620002658162000555565b92915050565b600082601f8301126200027d57600080fd5b81516200028f8482602086016200020f565b91505092915050565b600081519050620002a9816200056f565b92915050565b600080600080600080600060e0888a031215620002cb57600080fd5b6000620002db8a828b0162000254565b9750506020620002ee8a828b0162000254565b965050604088015167ffffffffffffffff8111156200030c57600080fd5b6200031a8a828b016200026b565b955050606088015167ffffffffffffffff8111156200033857600080fd5b620003468a828b016200026b565b9450506080620003598a828b0162000298565b93505060a06200036c8a828b0162000298565b92505060c088015167ffffffffffffffff8111156200038a57600080fd5b620003988a828b016200026b565b91505092959891949750929550565b6000620003b3620003c6565b9050620003c18282620004b0565b919050565b6000604051905090565b600067ffffffffffffffff821115620003ee57620003ed62000515565b5b620003f98262000544565b9050602081019050919050565b600062000413826200041a565b9050919050565b600073ffffffffffffffffffffffffffffffffffffffff82169050919050565b6000819050919050565b60005b838110156200046457808201518184015260208101905062000447565b8381111562000474576000848401525b50505050565b600060028204905060018216806200049357607f821691505b60208210811415620004aa57620004a9620004e6565b5b50919050565b620004bb8262000544565b810181811067ffffffffffffffff82111715620004dd57620004dc62000515565b5b80604052505050565b7f4e487b7100000000000000000000000000000000000000000000000000000000600052602260045260246000fd5b7f4e487b7100000000000000000000000000000000000000000000000000000000600052604160045260246000fd5b6000601f19601f8301169050919050565b620005608162000406565b81146200056c57600080fd5b50565b6200057a816200043a565b81146200058657600080fd5b50565b611dc180620005996000396000f3fe608060405234801561001057600080fd5b50600436106101165760003560e01c806370b3ae23116100a2578063b1581c5611610071578063b1581c56146102fc578063e0e349c41461031a578063e8a3791914610338578063ead0efba14610356578063fc36e15b1461037257610116565b806370b3ae23146102605780637284e4161461029057806375dd49d3146102ae57806384d1d91e146102cc57610116565b806347c87cdc116100e957806347c87cdc146101a5578063481c6a75146101d55780634a79d50c146101f35780634b4d0f54146102115780635001f3b51461024257610116565b80633197cbb61461011b57806340cb0b7014610139578063466c523e146101575780634717f97c14610187575b600080fd5b6101236103a2565b6040516101309190611945565b60405180910390f35b6101416103a8565b60405161014e91906117ed565b60405180910390f35b610171600480360381019061016c9190611322565b61052b565b60405161017e9190611831565b60405180910390f35b61018f610620565b60405161019c919061180f565b60405180910390f35b6101bf60048036038101906101ba9190611322565b6106bc565b6040516101cc919061184c565b60405180910390f35b6101dd6107d4565b6040516101ea91906117b0565b60405180910390f35b6101fb6107fa565b604051610208919061184c565b60405180910390f35b61022b60048036038101906102269190611462565b610888565b60405161023992919061186e565b60405180910390f35b61024a6109cc565b60405161025791906117b0565b60405180910390f35b61027a60048036038101906102759190611462565b6109f0565b6040516102879190611945565b60405180910390f35b610298610a14565b6040516102a5919061184c565b60405180910390f35b6102b6610aa2565b6040516102c391906117cb565b60405180910390f35b6102e660048036038101906102e1919061134b565b610b74565b6040516102f39190611831565b60405180910390f35b610304610c6a565b6040516103119190611945565b60405180910390f35b610322610c70565b60405161032f919061184c565b60405180910390f35b610340610cfe565b60405161034d91906117b0565b60405180910390f35b610370600480360381019061036b91906113f6565b610d24565b005b61038c600480360381019061038791906113b5565b610e78565b6040516103999190611831565b60405180910390f35b60065481565b60606007805480602002602001604051908101604052809291908181526020016000905b8282101561052257838290600052602060002090600202016040518060400160405290816000820180546103ff90611b78565b80601f016020809104026020016040519081016040528092919081815260200182805461042b90611b78565b80156104785780601f1061044d57610100808354040283529160200191610478565b820191906000526020600020905b81548152906001019060200180831161045b57829003601f168201915b5050505050815260200160018201805461049190611b78565b80601f01602080910402602001604051908101604052809291908181526020018280546104bd90611b78565b801561050a5780601f106104df5761010080835404028352916020019161050a565b820191906000526020600020905b8154815290600101906020018083116104ed57829003601f168201915b505050505081525050815260200190600101906103cc565b50505050905090565b600080600b805490501415610543576000905061061b565b8173ffffffffffffffffffffffffffffffffffffffff16600b600a60008573ffffffffffffffffffffffffffffffffffffffff1673ffffffffffffffffffffffffffffffffffffffff16815260200190815260200160002060000154815481106105d6577f4e487b7100000000000000000000000000000000000000000000000000000000600052603260045260246000fd5b9060005260206000200160009054906101000a900473ffffffffffffffffffffffffffffffffffffffff1673ffffffffffffffffffffffffffffffffffffffff161490505b919050565b60606006544211610666576040517f08c379a000000000000000000000000000000000000000000000000000000000815260040161065d906118a5565b60405180910390fd5b60098054806020026020016040519081016040528092919081815260200182805480156106b257602002820191906000526020600020905b81548152602001906001019080831161069e575b5050505050905090565b60606006544211610702576040517f08c379a00000000000000000000000000000000000000000000000000000000081526004016106f9906118a5565b60405180910390fd5b600a60008373ffffffffffffffffffffffffffffffffffffffff1673ffffffffffffffffffffffffffffffffffffffff168152602001908152602001600020600101805461074f90611b78565b80601f016020809104026020016040519081016040528092919081815260200182805461077b90611b78565b80156107c85780601f1061079d576101008083540402835291602001916107c8565b820191906000526020600020905b8154815290600101906020018083116107ab57829003601f168201915b50505050509050919050565b600160009054906101000a900473ffffffffffffffffffffffffffffffffffffffff1681565b6003805461080790611b78565b80601f016020809104026020016040519081016040528092919081815260200182805461083390611b78565b80156108805780601f1061085557610100808354040283529160200191610880565b820191906000526020600020905b81548152906001019060200180831161086357829003601f168201915b505050505081565b6007818154811061089857600080fd5b90600052602060002090600202016000915090508060000180546108bb90611b78565b80601f01602080910402602001604051908101604052809291908181526020018280546108e790611b78565b80156109345780601f1061090957610100808354040283529160200191610934565b820191906000526020600020905b81548152906001019060200180831161091757829003601f168201915b50505050509080600101805461094990611b78565b80601f016020809104026020016040519081016040528092919081815260200182805461097590611b78565b80156109c25780601f10610997576101008083540402835291602001916109c2565b820191906000526020600020905b8154815290600101906020018083116109a557829003601f168201915b5050505050905082565b60008054906101000a900473ffffffffffffffffffffffffffffffffffffffff1681565b60098181548110610a0057600080fd5b906000526020600020016000915090505481565b60048054610a2190611b78565b80601f0160208091040260200160405190810160405280929190818152602001828054610a4d90611b78565b8015610a9a5780601f10610a6f57610100808354040283529160200191610a9a565b820191906000526020600020905b815481529060010190602001808311610a7d57829003601f168201915b505050505081565b60606006544211610ae8576040517f08c379a0000000000000000000000000000000000000000000000000000000008152600401610adf906118a5565b60405180910390fd5b600b805480602002602001604051908101604052809291908181526020018280548015610b6a57602002820191906000526020600020905b8160009054906101000a900473ffffffffffffffffffffffffffffffffffffffff1673ffffffffffffffffffffffffffffffffffffffff1681526020019060010190808311610b20575b5050505050905090565b6000600160009054906101000a900473ffffffffffffffffffffffffffffffffffffffff1673ffffffffffffffffffffffffffffffffffffffff163373ffffffffffffffffffffffffffffffffffffffff1614610c06576040517f08c379a0000000000000000000000000000000000000000000000000000000008152600401610bfd90611925565b60405180910390fd5b6006544211610c4a576040517f08c379a0000000000000000000000000000000000000000000000000000000008152600401610c41906118a5565b60405180910390fd5b8160099080519060200190610c609291906110f5565b5060019050919050565b60055481565b60088054610c7d90611b78565b80601f0160208091040260200160405190810160405280929190818152602001828054610ca990611b78565b8015610cf65780601f10610ccb57610100808354040283529160200191610cf6565b820191906000526020600020905b815481529060010190602001808311610cd957829003601f168201915b505050505081565b600260009054906101000a900473ffffffffffffffffffffffffffffffffffffffff1681565b600160009054906101000a900473ffffffffffffffffffffffffffffffffffffffff1673ffffffffffffffffffffffffffffffffffffffff163373ffffffffffffffffffffffffffffffffffffffff1614610db4576040517f08c379a0000000000000000000000000000000000000000000000000000000008152600401610dab90611925565b60405180910390fd5b6005544210610df8576040517f08c379a0000000000000000000000000000000000000000000000000000000008152600401610def906118c5565b60405180910390fd5b600760405180604001604052808481526020018381525090806001815401808255809150506001900390600052602060002090600202016000909190919091506000820151816000019080519060200190610e54929190611142565b506020820151816001019080519060200190610e71929190611142565b5050505050565b600060055442118015610e8c575060065442105b610ecb576040517f08c379a0000000000000000000000000000000000000000000000000000000008152600401610ec290611905565b60405180910390fd5b610ed43361103c565b610f13576040517f08c379a0000000000000000000000000000000000000000000000000000000008152600401610f0a906118e5565b60405180910390fd5b81600a60003373ffffffffffffffffffffffffffffffffffffffff1673ffffffffffffffffffffffffffffffffffffffff1681526020019081526020016000206001019080519060200190610f69929190611142565b50610f733361052b565b61103357600b339080600181540180825580915050600190039060005260206000200160009091909190916101000a81548173ffffffffffffffffffffffffffffffffffffffff021916908373ffffffffffffffffffffffffffffffffffffffff1602179055506001600b80549050610fec9190611aba565b600a60003373ffffffffffffffffffffffffffffffffffffffff1673ffffffffffffffffffffffffffffffffffffffff168152602001908152602001600020600001819055505b60019050919050565b600080600260009054906101000a900473ffffffffffffffffffffffffffffffffffffffff1690508073ffffffffffffffffffffffffffffffffffffffff1663a7771ee3846040518263ffffffff1660e01b815260040161109d91906117b0565b60206040518083038186803b1580156110b557600080fd5b505afa1580156110c9573d6000803e3d6000fd5b505050506040513d601f19601f820116820180604052508101906110ed919061138c565b915050919050565b828054828255906000526020600020908101928215611131579160200282015b82811115611130578251825591602001919060010190611115565b5b50905061113e91906111c8565b5090565b82805461114e90611b78565b90600052602060002090601f01602090048101928261117057600085556111b7565b82601f1061118957805160ff19168380011785556111b7565b828001600101855582156111b7579182015b828111156111b657825182559160200191906001019061119b565b5b5090506111c491906111c8565b5090565b5b808211156111e15760008160009055506001016111c9565b5090565b60006111f86111f384611985565b611960565b9050808382526020820190508285602086028201111561121757600080fd5b60005b85811015611247578161122d888261130d565b84526020840193506020830192505060018101905061121a565b5050509392505050565b600061126461125f846119b1565b611960565b90508281526020810184848401111561127c57600080fd5b611287848285611b36565b509392505050565b60008135905061129e81611d46565b92915050565b600082601f8301126112b557600080fd5b81356112c58482602086016111e5565b91505092915050565b6000815190506112dd81611d5d565b92915050565b600082601f8301126112f457600080fd5b8135611304848260208601611251565b91505092915050565b60008135905061131c81611d74565b92915050565b60006020828403121561133457600080fd5b60006113428482850161128f565b91505092915050565b60006020828403121561135d57600080fd5b600082013567ffffffffffffffff81111561137757600080fd5b611383848285016112a4565b91505092915050565b60006020828403121561139e57600080fd5b60006113ac848285016112ce565b91505092915050565b6000602082840312156113c757600080fd5b600082013567ffffffffffffffff8111156113e157600080fd5b6113ed848285016112e3565b91505092915050565b6000806040838503121561140957600080fd5b600083013567ffffffffffffffff81111561142357600080fd5b61142f858286016112e3565b925050602083013567ffffffffffffffff81111561144c57600080fd5b611458858286016112e3565b9150509250929050565b60006020828403121561147457600080fd5b60006114828482850161130d565b91505092915050565b600061149783836114cf565b60208301905092915050565b60006114af838361174e565b905092915050565b60006114c38383611792565b60208301905092915050565b6114d881611aee565b82525050565b6114e781611aee565b82525050565b60006114f882611a12565b6115028185611a65565b935061150d836119e2565b8060005b8381101561153e578151611525888261148b565b975061153083611a3e565b925050600181019050611511565b5085935050505092915050565b600061155682611a1d565b6115608185611a76565b935083602082028501611572856119f2565b8060005b858110156115ae578484038952815161158f85826114a3565b945061159a83611a4b565b925060208a01995050600181019050611576565b50829750879550505050505092915050565b60006115cb82611a28565b6115d58185611a87565b93506115e083611a02565b8060005b838110156116115781516115f888826114b7565b975061160383611a58565b9250506001810190506115e4565b5085935050505092915050565b61162781611b00565b82525050565b600061163882611a33565b6116428185611a98565b9350611652818560208601611b45565b61165b81611c68565b840191505092915050565b600061167182611a33565b61167b8185611aa9565b935061168b818560208601611b45565b61169481611c68565b840191505092915050565b60006116ac601183611aa9565b91506116b782611c79565b602082019050919050565b60006116cf601283611aa9565b91506116da82611ca2565b602082019050919050565b60006116f2600d83611aa9565b91506116fd82611ccb565b602082019050919050565b6000611715601283611aa9565b915061172082611cf4565b602082019050919050565b6000611738601183611aa9565b915061174382611d1d565b602082019050919050565b6000604083016000830151848203600086015261176b828261162d565b91505060208301518482036020860152611785828261162d565b9150508091505092915050565b61179b81611b2c565b82525050565b6117aa81611b2c565b82525050565b60006020820190506117c560008301846114de565b92915050565b600060208201905081810360008301526117e581846114ed565b905092915050565b60006020820190508181036000830152611807818461154b565b905092915050565b6000602082019050818103600083015261182981846115c0565b905092915050565b6000602082019050611846600083018461161e565b92915050565b600060208201905081810360008301526118668184611666565b905092915050565b600060408201905081810360008301526118888185611666565b9050818103602083015261189c8184611666565b90509392505050565b600060208201905081810360008301526118be8161169f565b9050919050565b600060208201905081810360008301526118de816116c2565b9050919050565b600060208201905081810360008301526118fe816116e5565b9050919050565b6000602082019050818103600083015261191e81611708565b9050919050565b6000602082019050818103600083015261193e8161172b565b9050919050565b600060208201905061195a60008301846117a1565b92915050565b600061196a61197b565b90506119768282611baa565b919050565b6000604051905090565b600067ffffffffffffffff8211156119a05761199f611c39565b5b602082029050602081019050919050565b600067ffffffffffffffff8211156119cc576119cb611c39565b5b6119d582611c68565b9050602081019050919050565b6000819050602082019050919050565b6000819050602082019050919050565b6000819050602082019050919050565b600081519050919050565b600081519050919050565b600081519050919050565b600081519050919050565b6000602082019050919050565b6000602082019050919050565b6000602082019050919050565b600082825260208201905092915050565b600082825260208201905092915050565b600082825260208201905092915050565b600082825260208201905092915050565b600082825260208201905092915050565b6000611ac582611b2c565b9150611ad083611b2c565b925082821015611ae357611ae2611bdb565b5b828203905092915050565b6000611af982611b0c565b9050919050565b60008115159050919050565b600073ffffffffffffffffffffffffffffffffffffffff82169050919050565b6000819050919050565b82818337600083830152505050565b60005b83811015611b63578082015181840152602081019050611b48565b83811115611b72576000848401525b50505050565b60006002820490506001821680611b9057607f821691505b60208210811415611ba457611ba3611c0a565b5b50919050565b611bb382611c68565b810181811067ffffffffffffffff82111715611bd257611bd1611c39565b5b80604052505050565b7f4e487b7100000000000000000000000000000000000000000000000000000000600052601160045260246000fd5b7f4e487b7100000000000000000000000000000000000000000000000000000000600052602260045260246000fd5b7f4e487b7100000000000000000000000000000000000000000000000000000000600052604160045260246000fd5b6000601f19601f8301169050919050565b7f4f6e6c7920616674657220766f74696e67000000000000000000000000000000600082015250565b7f4f6e6c79206265666f726520766f74696e670000000000000000000000000000600082015250565b7f4e6f742052656769737465726400000000000000000000000000000000000000600082015250565b7f4f6e6c7920647572696e6720766f74696e670000000000000000000000000000600082015250565b7f4f6e6c792061646d696e69737461746f72000000000000000000000000000000600082015250565b611d4f81611aee565b8114611d5a57600080fd5b50565b611d6681611b00565b8114611d7157600080fd5b50565b611d7d81611b2c565b8114611d8857600080fd5b5056fea2646970667358221220bc45be92dba39c1b59f007595fb80ba32131cc90aca13809b3b3aa4a227b486b64736f6c63430008040033",
  "immutableReferences": {},
  "source": "\r\npragma solidity ^0.8.4;\r\npragma experimental ABIEncoderV2;\r\n\r\nimport \"./registration.sol\";\r\n\r\n//,    \r\ncontract Voting {\r\n    struct Param {\r\n        string title;\r\n        string description;\r\n    }\r\n\r\n    struct Vote {\r\n        uint indofAdr; //    \r\n        string encryptedVote; //  0  1.1- \r\n    }\r\n\r\n    address public base;\r\n    address public manager;\r\n    address public Registration;\r\n    string public title;\r\n    string public description;\r\n    uint public time_start;\r\n    uint public endTime;\r\n    Param[] public parametrs;\r\n    string public publicKey;\r\n    uint[] public publishedResult;\r\n\r\n    mapping(address => Vote) private votes; // -       \r\n    address[] private addrswhoVoted; //  , \r\n\r\n    //   \r\n    constructor(address _manager,address _registration,string memory _title,string memory _description,uint _time_start,uint _endTime,string memory _publicKey\r\n    )  {\r\n        base = msg.sender;\r\n        Registration = _registration;\r\n        manager = _manager;\r\n        title = _title;\r\n        description = _description;\r\n        time_start = _time_start;\r\n        endTime = _endTime;\r\n        publicKey = _publicKey;\r\n    }\r\n\r\n \r\n    modifier manager1() {\r\n        require(msg.sender == manager, \"Only administator\");\r\n        _;\r\n    }\r\n\r\n    // modifier factory() {\r\n    //     require(msg.sender == base, \"      \");\r\n    //     _;\r\n    // }\r\n\r\n    modifier beforeVoting() {\r\n        require(block.timestamp < time_start, \"Only before voting\");\r\n        _;\r\n    }\r\n\r\n    modifier duringVoting() {\r\n        require(block.timestamp > time_start && block.timestamp < endTime, \"Only during voting\");\r\n        _;\r\n    }\r\n\r\n    modifier afterVoting() {\r\n        require(block.timestamp > endTime, \"Only after voting\");\r\n        _;\r\n    }\r\n\r\n    //       ,     \r\n    function addParam(string memory _title, string memory _description) external manager1 beforeVoting {\r\n        parametrs.push(Param({ title: _title, description: _description }));\r\n    }\r\n\r\n    //  ,  \r\n    function getParametrs() external view returns( Param[] memory) {\r\n        return parametrs;\r\n    }\r\n\r\n    //   , \r\n    function getListOfVoted() external view afterVoting returns(address[] memory votersList) {\r\n        return addrswhoVoted;\r\n    }\r\n\r\n    //  ,        \r\n    function getEncryptedVots(address _address) external view afterVoting returns(string memory encryptedVote) {\r\n        return votes[_address].encryptedVote;\r\n    }\r\n\r\n    //      ()\r\n    function publishResults(uint[] memory results) external manager1 afterVoting returns(bool success) {\r\n        publishedResult = results;\r\n        return true;\r\n    }\r\n\r\n    //      ()\r\n    function getResults() external view afterVoting returns(uint[] memory results) {\r\n        return publishedResult;\r\n    }\r\n    //     \r\n    function yetVoted(address _address) public view returns(bool) {\r\n        if(addrswhoVoted.length == 0) return false;\r\n        return (addrswhoVoted[votes[_address].indofAdr] == _address);\r\n    }\r\n    //   \r\n    function yetRegistered(address _address) private view returns(bool) {\r\n        registration r = registration(Registration);\r\n        return r.isVoter(_address);\r\n    }\r\n\r\n    \r\n    //   ,    ,  \r\n    function vote(string memory _encryptedVote) external duringVoting returns(bool success) {\r\n        require(yetRegistered(msg.sender), \"Not Registerd\");\r\n\r\n        votes[msg.sender].encryptedVote = _encryptedVote;\r\n\r\n        if(!yetVoted(msg.sender)) {\r\n            addrswhoVoted.push(msg.sender);\r\n            votes[msg.sender].indofAdr = addrswhoVoted.length - 1;\r\n        }\r\n\r\n        return true;\r\n    }\r\n\r\n    \r\n\r\n    \r\n}",
  "sourcePath": "C:/Users/1/Desktop/my-project/src/contracts/Voting.sol",
  "compiler": {
    "name": "solc",
    "version": "0.8.4+commit.c7e474f2.Emscripten.clang"
  },
  "schemaVersion": "3.3.4",
  "updatedAt": "2021-06-10T01:03:04.945Z",
  "devdoc": {
    "kind": "dev",
    "methods": {},
    "version": 1
  },
  "userdoc": {
    "kind": "user",
    "methods": {},
    "version": 1
  }
}